{
	"data": {
		"bytecode": {
			"linkReferences": {},
			"object": "60806040523480156200001157600080fd5b5060405162003b7938038062003b79833981810160405281019062000037919062000206565b620000576200004b620000d060201b60201c565b620000d860201b60201c565b80600560006101000a81548173ffffffffffffffffffffffffffffffffffffffff021916908373ffffffffffffffffffffffffffffffffffffffff1602179055504233604051602001620000ad92919062000312565b60405160208183030381529060405280519060200120600481905550506200034f565b600033905090565b60008060009054906101000a900473ffffffffffffffffffffffffffffffffffffffff169050816000806101000a81548173ffffffffffffffffffffffffffffffffffffffff021916908373ffffffffffffffffffffffffffffffffffffffff1602179055508173ffffffffffffffffffffffffffffffffffffffff168173ffffffffffffffffffffffffffffffffffffffff167f8be0079c531659141344cd1fd0a4f28419497f9722a3daafe3b4186f6b6457e060405160405180910390a35050565b600080fd5b600073ffffffffffffffffffffffffffffffffffffffff82169050919050565b6000620001ce82620001a1565b9050919050565b620001e081620001c1565b8114620001ec57600080fd5b50565b6000815190506200020081620001d5565b92915050565b6000602082840312156200021f576200021e6200019c565b5b60006200022f84828501620001ef565b91505092915050565b600081905092915050565b7f46696e546f6b656e20526564205061636b657400000000000000000000000000600082015250565b60006200027b60138362000238565b9150620002888262000243565b601382019050919050565b6000819050919050565b6000819050919050565b620002bc620002b68262000293565b6200029d565b82525050565b60008160601b9050919050565b6000620002dc82620002c2565b9050919050565b6000620002f082620002cf565b9050919050565b6200030c6200030682620001c1565b620002e3565b82525050565b60006200031f826200026c565b91506200032d8285620002a7565b6020820191506200033f8284620002f7565b6014820191508190509392505050565b61381a806200035f6000396000f3fe6080604052600436106100a75760003560e01c8063715018a611610064578063715018a6146101d5578063753999ef146101ec5780638da5cb5b1461022f578063ab08d1661461025a578063e1bf905a14610298578063f2fde38b146102c1576100a7565b8063097eb759146100ac57806315cbadff146100d55780633435926f146100fe578063510be06b1461013d578063535e1c091461016d5780635eddd15714610198575b600080fd5b3480156100b857600080fd5b506100d360048036038101906100ce9190611f4a565b6102ea565b005b3480156100e157600080fd5b506100fc60048036038101906100f79190611fad565b610336565b005b34801561010a57600080fd5b5061012560048036038101906101209190611fed565b610496565b60405161013493929190612067565b60405180910390f35b6101576004803603810190610152919061221c565b61051e565b6040516101649190612319565b60405180910390f35b34801561017957600080fd5b50610182610a2d565b60405161018f9190612319565b60405180910390f35b3480156101a457600080fd5b506101bf60048036038101906101ba91906123d5565b610a3a565b6040516101cc9190612319565b60405180910390f35b3480156101e157600080fd5b506101ea610e51565b005b3480156101f857600080fd5b50610213600480360381019061020e9190611fed565b610e65565b6040516102269796959493929190612453565b60405180910390f35b34801561023b57600080fd5b50610244610f72565b60405161025191906124c2565b60405180910390f35b34801561026657600080fd5b50610281600480360381019061027c9190611fad565b610f9b565b60405161028f9291906125f0565b60405180910390f35b3480156102a457600080fd5b506102bf60048036038101906102ba9190611fed565b6111dc565b005b3480156102cd57600080fd5b506102e860048036038101906102e39190611f4a565b6113fa565b005b6102f261147d565b80600560006101000a81548173ffffffffffffffffffffffffffffffffffffffff021916908373ffffffffffffffffffffffffffffffffffffffff16021790555050565b61033e61147d565b60008061034b8484610f9b565b9150915060005b8181101561048f57600083828151811061036f5761036e612620565b5b6020026020010151905060008160600151036103dc5761038d610f72565b73ffffffffffffffffffffffffffffffffffffffff166108fc82604001519081150290604051600060405180830381858888f193505050501580156103d6573d6000803e3d6000fd5b50610404565b60018160600151036104035761040281602001516103f8610f72565b83604001516114fb565b5b5b6001600260008360000151815260200190815260200160002060006101000a81548160ff0219169083151502179055507f376aba31ca2f718ed24fa28bab1423390ec32e6423afc7d61e74bc5a20a843398160000151826020015183604001516040516104739392919061264f565b60405180910390a1508080610487906126b5565b915050610352565b5050505050565b60036020528060005260406000206000915090508060000160405180604001604052908160008201548152602001600182015481525050908060030160009054906101000a900473ffffffffffffffffffffffffffffffffffffffff16908060040160009054906101000a900473ffffffffffffffffffffffffffffffffffffffff16905083565b600080601481819054906101000a900463ffffffff16809291906105419061270d565b91906101000a81548163ffffffff021916908363ffffffff16021790555050888210156105a3576040517f08c379a000000000000000000000000000000000000000000000000000000000815260040161059a90612796565b60405180910390fd5b600089116105e6576040517f08c379a00000000000000000000000000000000000000000000000000000000081526004016105dd90612802565b60405180910390fd5b6103e889111561062b576040517f08c379a00000000000000000000000000000000000000000000000000000000081526004016106229061286e565b60405180910390fd5b600084148061063a5750600184145b610679576040517f08c379a0000000000000000000000000000000000000000000000000000000008152600401610670906128da565b60405180910390fd5b6000829050600085036106cd578234146106c8576040517f08c379a00000000000000000000000000000000000000000000000000000000081526004016106bf90612946565b60405180910390fd5b610853565b600185036108525760008473ffffffffffffffffffffffffffffffffffffffff166370a08231306040518263ffffffff1660e01b815260040161071091906124c2565b602060405180830381865afa15801561072d573d6000803e3d6000fd5b505050506040513d601f19601f82011682018060405250810190610751919061297b565b90506107803330868873ffffffffffffffffffffffffffffffffffffffff1661152b909392919063ffffffff16565b60008573ffffffffffffffffffffffffffffffffffffffff166370a08231306040518263ffffffff1660e01b81526004016107bb91906124c2565b602060405180830381865afa1580156107d8573d6000803e3d6000fd5b505050506040513d601f19601f820116820180604052508101906107fc919061297b565b9050818161080a91906129a8565b92508b83101561084f576040517f08c379a000000000000000000000000000000000000000000000000000000000815260040161084690612a28565b60405180910390fd5b50505b5b3342600060149054906101000a900463ffffffff1660045460405160200161087e9493929190612b12565b6040516020818303038152906040528051906020012060001c91506000896108a75760006108aa565b60015b60ff16905060006003600085815260200190815260200160002090506108d0838b6115b4565b81600001600001819055506108e7868d89856115f2565b8160000160010181905550600560009054906101000a900473ffffffffffffffffffffffffffffffffffffffff168160030160006101000a81548173ffffffffffffffffffffffffffffffffffffffff021916908373ffffffffffffffffffffffffffffffffffffffff160217905550338160040160006101000a81548173ffffffffffffffffffffffffffffffffffffffff021916908373ffffffffffffffffffffffffffffffffffffffff160217905550505060008a905060008a905060008a905060018590806001815401808255809150506001900390600052602060002001600090919091909150557f52871f59806bc02f686fb16ab6f02e341def69c8c47d20b9e716fa69b3eb638084868b8d33428d8a8a8a604051610a159a99989796959493929190612bce565b60405180910390a15050505098975050505050505050565b6000600180549050905090565b60008060036000868152602001908152602001600020905060008160000160405180604001604052908160008201548152602001600182015481525050905042610a8b826000015160e06020611671565b11610acb576040517f08c379a0000000000000000000000000000000000000000000000000000000008152600401610ac290612cc4565b60405180910390fd5b6000610ade826020015160ef600f611671565b90506000610af3836020015160e0600f611671565b9050818110610b37576040517f08c379a0000000000000000000000000000000000000000000000000000000008152600401610b2e90612d30565b60405180910390fd5b60008460030160009054906101000a900473ffffffffffffffffffffffffffffffffffffffff169050610b6d87828b8b336116d1565b610bac576040517f08c379a0000000000000000000000000000000000000000000000000000000008152600401610ba390612d9c565b60405180910390fd5b60008890506000610bc4866020015160fe6001611671565b90506000610bd9876000015160806060611671565b905080831115610c1e576040517f08c379a0000000000000000000000000000000000000000000000000000000008152600401610c1590612e2e565b60405180910390fd5b60008382610c2c91906129a8565b03610c5e576001600260008e815260200190815260200160002060006101000a81548160ff0219169083151502179055505b610c7b8760000151608060608685610c7691906129a8565b61176b565b886000016000018190555060008860020160003373ffffffffffffffffffffffffffffffffffffffff1673ffffffffffffffffffffffffffffffffffffffff1681526020019081526020016000205414610d0a576040517f08c379a0000000000000000000000000000000000000000000000000000000008152600401610d0190612e9a565b60405180910390fd5b828860020160003373ffffffffffffffffffffffffffffffffffffffff1673ffffffffffffffffffffffffffffffffffffffff16815260200190815260200160002081905550610d6e876020015160e0600f600189610d699190612eba565b61176b565b886000016001018190555060008203610dcd573373ffffffffffffffffffffffffffffffffffffffff166108fc849081150290604051600060405180830381858888f19350505050158015610dc7573d6000803e3d6000fd5b50610df2565b60018203610df157610df0610de98860200151604060a0611671565b33856114fb565b5b5b7faabd1ce8d77185358f8d53064d3f903d11fdc3b10c7a0865c9cda2871981e5a98c3385610e278b60200151604060a0611671565b604051610e379493929190612eee565b60405180910390a182985050505050505050509392505050565b610e5961147d565b610e636000611786565b565b600080600080600080600080600360008a81526020019081526020016000209050600081600001604051806040016040529081600082015481526020016001820154815250509050610ebe8160200151604060a0611671565b610ecf826000015160806060611671565b610ee0836020015160ef600f611671565b610ef1846020015160e0600f611671565b610f02856020015160ff6001611671565b610f13866000015160e06020611671565b42118760020160003373ffffffffffffffffffffffffffffffffffffffff1673ffffffffffffffffffffffffffffffffffffffff1681526020019081526020016000205498509850985098509850985098505050919395979092949650565b60008060009054906101000a900473ffffffffffffffffffffffffffffffffffffffff16905090565b60606000828410610fe1576040517f08c379a0000000000000000000000000000000000000000000000000000000008152600401610fd890612f7f565b60405180910390fd5b600180549050831115611029576040517f08c379a000000000000000000000000000000000000000000000000000000000815260040161102090612feb565b60405180910390fd5b6000848461103791906129a8565b67ffffffffffffffff8111156110505761104f6120f1565b5b60405190808252806020026020018201604052801561108957816020015b611076611e9a565b81526020019060019003908161106e5790505b5090506000808690505b858110156111cc576000600182815481106110b1576110b0612620565b5b9060005260206000200154905060006003600083815260200190815260200160002090506002600083815260200190815260200160002060009054906101000a900460ff161580156111155750611112816000016000015460e06020611671565b42115b156111b757604051806080016040528083815260200161113f8360000160010154604060a0611671565b73ffffffffffffffffffffffffffffffffffffffff16815260200161116e836000016000015460806060611671565b8152602001611187836000016001015460fe6001611671565b81525085858151811061119d5761119c612620565b5b602002602001018190525083806111b3906126b5565b9450505b505080806111c4906126b5565b915050611093565b5081819350935050509250929050565b6111e461147d565b600060036000838152602001908152602001600020905060008160000160405180604001604052908160008201548152602001600182015481525050905042611234826000015160e06020611671565b10611274576040517f08c379a000000000000000000000000000000000000000000000000000000000815260040161126b90613057565b60405180910390fd5b6002600084815260200190815260200160002060009054906101000a900460ff16156112d5576040517f08c379a00000000000000000000000000000000000000000000000000000000081526004016112cc906130c3565b60405180910390fd5b60006112e8826020015160fe6001611671565b905060006112fd836000015160806060611671565b905060006113128460200151604060a0611671565b905060016002600088815260200190815260200160002060006101000a81548160ff0219169083151502179055506000830361139b57611350610f72565b73ffffffffffffffffffffffffffffffffffffffff166108fc839081150290604051600060405180830381858888f19350505050158015611395573d6000803e3d6000fd5b506113b7565b600183036113b6576113b5816113af610f72565b846114fb565b5b5b7f376aba31ca2f718ed24fa28bab1423390ec32e6423afc7d61e74bc5a20a843398682846040516113ea9392919061264f565b60405180910390a1505050505050565b61140261147d565b600073ffffffffffffffffffffffffffffffffffffffff168173ffffffffffffffffffffffffffffffffffffffff1603611471576040517f08c379a000000000000000000000000000000000000000000000000000000000815260040161146890613155565b60405180910390fd5b61147a81611786565b50565b61148561184a565b73ffffffffffffffffffffffffffffffffffffffff166114a3610f72565b73ffffffffffffffffffffffffffffffffffffffff16146114f9576040517f08c379a00000000000000000000000000000000000000000000000000000000081526004016114f0906131c1565b60405180910390fd5b565b61152682828573ffffffffffffffffffffffffffffffffffffffff166118529092919063ffffffff16565b505050565b6115ae846323b872dd60e01b85858560405160240161154c939291906131e1565b604051602081830303815290604052907bffffffffffffffffffffffffffffffffffffffffffffffffffffffff19166020820180517bffffffffffffffffffffffffffffffffffffffffffffffffffffffff83818316178352505050506118d8565b50505050565b600080600090506115c860806060866119a0565b811790506115e460e0602085426115df9190612eba565b6119a0565b811790508091505092915050565b6000806000905061161c604060a08873ffffffffffffffffffffffffffffffffffffffff166119a0565b8117905061162e60e0600f60006119a0565b8117905061163f60ef600f876119a0565b8117905061165060fe6001866119a0565b8117905061166160ff6001856119a0565b8117905080915050949350505050565b600061167f610100856119f7565b6116be576040517f08c379a00000000000000000000000000000000000000000000000000000000081526004016116b590613264565b60405180910390fd5b83831c600180841b031690509392505050565b6000806040518060600160405280602681526020016137bf60269139905060008186868660405160200161170894939291906132cb565b604051602081830303815290604052805190602001209050600061172c828a611a0d565b90508773ffffffffffffffffffffffffffffffffffffffff168173ffffffffffffffffffffffffffffffffffffffff1614935050505095945050505050565b600081841b600180851b03851b198616179050949350505050565b60008060009054906101000a900473ffffffffffffffffffffffffffffffffffffffff169050816000806101000a81548173ffffffffffffffffffffffffffffffffffffffff021916908373ffffffffffffffffffffffffffffffffffffffff1602179055508173ffffffffffffffffffffffffffffffffffffffff168173ffffffffffffffffffffffffffffffffffffffff167f8be0079c531659141344cd1fd0a4f28419497f9722a3daafe3b4186f6b6457e060405160405180910390a35050565b600033905090565b6118d38363a9059cbb60e01b8484604051602401611871929190613315565b604051602081830303815290604052907bffffffffffffffffffffffffffffffffffffffffffffffffffffffff19166020820180517bffffffffffffffffffffffffffffffffffffffffffffffffffffffff83818316178352505050506118d8565b505050565b600061193a826040518060400160405280602081526020017f5361666545524332303a206c6f772d6c6576656c2063616c6c206661696c65648152508573ffffffffffffffffffffffffffffffffffffffff16611a349092919063ffffffff16565b905060008151148061195c57508080602001905181019061195b9190613353565b5b61199b576040517f08c379a0000000000000000000000000000000000000000000000000000000008152600401611992906133f2565b60405180910390fd5b505050565b60006119ac83836119f7565b6119eb576040517f08c379a00000000000000000000000000000000000000000000000000000000081526004016119e29061345e565b60405180910390fd5b81841b90509392505050565b6000816001841b11610100841417905092915050565b6000806000611a1c8585611a4c565b91509150611a2981611a9d565b819250505092915050565b6060611a438484600085611c03565b90509392505050565b6000806041835103611a8d5760008060006020860151925060408601519150606086015160001a9050611a8187828585611cd0565b94509450505050611a96565b60006002915091505b9250929050565b60006004811115611ab157611ab061347e565b5b816004811115611ac457611ac361347e565b5b0315611c005760016004811115611ade57611add61347e565b5b816004811115611af157611af061347e565b5b03611b31576040517f08c379a0000000000000000000000000000000000000000000000000000000008152600401611b28906134f9565b60405180910390fd5b60026004811115611b4557611b4461347e565b5b816004811115611b5857611b5761347e565b5b03611b98576040517f08c379a0000000000000000000000000000000000000000000000000000000008152600401611b8f90613565565b60405180910390fd5b60036004811115611bac57611bab61347e565b5b816004811115611bbf57611bbe61347e565b5b03611bff576040517f08c379a0000000000000000000000000000000000000000000000000000000008152600401611bf6906135f7565b60405180910390fd5b5b50565b606082471015611c48576040517f08c379a0000000000000000000000000000000000000000000000000000000008152600401611c3f90613689565b60405180910390fd5b6000808673ffffffffffffffffffffffffffffffffffffffff168587604051611c7191906136a9565b60006040518083038185875af1925050503d8060008114611cae576040519150601f19603f3d011682016040523d82523d6000602084013e611cb3565b606091505b5091509150611cc487838387611db2565b92505050949350505050565b6000807f7fffffffffffffffffffffffffffffff5d576e7357a4501ddfe92f46681b20a08360001c1115611d0b576000600391509150611da9565b600060018787878760405160008152602001604052604051611d3094939291906136eb565b6020604051602081039080840390855afa158015611d52573d6000803e3d6000fd5b505050602060405103519050600073ffffffffffffffffffffffffffffffffffffffff168173ffffffffffffffffffffffffffffffffffffffff1603611da057600060019250925050611da9565b80600092509250505b94509492505050565b60608315611e14576000835103611e0c57611dcc85611e27565b611e0b576040517f08c379a0000000000000000000000000000000000000000000000000000000008152600401611e029061377c565b60405180910390fd5b5b829050611e1f565b611e1e8383611e4a565b5b949350505050565b6000808273ffffffffffffffffffffffffffffffffffffffff163b119050919050565b600082511115611e5d5781518083602001fd5b806040517f08c379a0000000000000000000000000000000000000000000000000000000008152600401611e91919061379c565b60405180910390fd5b604051806080016040528060008152602001600073ffffffffffffffffffffffffffffffffffffffff16815260200160008152602001600081525090565b6000604051905090565b600080fd5b600080fd5b600073ffffffffffffffffffffffffffffffffffffffff82169050919050565b6000611f1782611eec565b9050919050565b611f2781611f0c565b8114611f3257600080fd5b50565b600081359050611f4481611f1e565b92915050565b600060208284031215611f6057611f5f611ee2565b5b6000611f6e84828501611f35565b91505092915050565b6000819050919050565b611f8a81611f77565b8114611f9557600080fd5b50565b600081359050611fa781611f81565b92915050565b60008060408385031215611fc457611fc3611ee2565b5b6000611fd285828601611f98565b9250506020611fe385828601611f98565b9150509250929050565b60006020828403121561200357612002611ee2565b5b600061201184828501611f98565b91505092915050565b61202381611f77565b82525050565b60408201600082015161203f600085018261201a565b506020820151612052602085018261201a565b50505050565b61206181611f0c565b82525050565b600060808201905061207c6000830186612029565b6120896040830185612058565b6120966060830184612058565b949350505050565b60008115159050919050565b6120b38161209e565b81146120be57600080fd5b50565b6000813590506120d0816120aa565b92915050565b600080fd5b600080fd5b6000601f19601f8301169050919050565b7f4e487b7100000000000000000000000000000000000000000000000000000000600052604160045260246000fd5b612129826120e0565b810181811067ffffffffffffffff82111715612148576121476120f1565b5b80604052505050565b600061215b611ed8565b90506121678282612120565b919050565b600067ffffffffffffffff821115612187576121866120f1565b5b612190826120e0565b9050602081019050919050565b82818337600083830152505050565b60006121bf6121ba8461216c565b612151565b9050828152602081018484840111156121db576121da6120db565b5b6121e684828561219d565b509392505050565b600082601f830112612203576122026120d6565b5b81356122138482602086016121ac565b91505092915050565b600080600080600080600080610100898b03121561223d5761223c611ee2565b5b600061224b8b828c01611f98565b985050602061225c8b828c016120c1565b975050604061226d8b828c01611f98565b965050606089013567ffffffffffffffff81111561228e5761228d611ee7565b5b61229a8b828c016121ee565b955050608089013567ffffffffffffffff8111156122bb576122ba611ee7565b5b6122c78b828c016121ee565b94505060a06122d88b828c01611f98565b93505060c06122e98b828c01611f35565b92505060e06122fa8b828c01611f98565b9150509295985092959890939650565b61231381611f77565b82525050565b600060208201905061232e600083018461230a565b92915050565b600067ffffffffffffffff82111561234f5761234e6120f1565b5b612358826120e0565b9050602081019050919050565b600061237861237384612334565b612151565b905082815260208101848484011115612394576123936120db565b5b61239f84828561219d565b509392505050565b600082601f8301126123bc576123bb6120d6565b5b81356123cc848260208601612365565b91505092915050565b6000806000606084860312156123ee576123ed611ee2565b5b60006123fc86828701611f98565b935050602061240d86828701611f98565b925050604084013567ffffffffffffffff81111561242e5761242d611ee7565b5b61243a868287016123a7565b9150509250925092565b61244d8161209e565b82525050565b600060e082019050612468600083018a612058565b612475602083018961230a565b612482604083018861230a565b61248f606083018761230a565b61249c608083018661230a565b6124a960a0830185612444565b6124b660c083018461230a565b98975050505050505050565b60006020820190506124d76000830184612058565b92915050565b600081519050919050565b600082825260208201905092915050565b6000819050602082019050919050565b61251281611f0c565b82525050565b60808201600082015161252e600085018261201a565b5060208201516125416020850182612509565b506040820151612554604085018261201a565b506060820151612567606085018261201a565b50505050565b60006125798383612518565b60808301905092915050565b6000602082019050919050565b600061259d826124dd565b6125a781856124e8565b93506125b2836124f9565b8060005b838110156125e35781516125ca888261256d565b97506125d583612585565b9250506001810190506125b6565b5085935050505092915050565b6000604082019050818103600083015261260a8185612592565b9050612619602083018461230a565b9392505050565b7f4e487b7100000000000000000000000000000000000000000000000000000000600052603260045260246000fd5b6000606082019050612664600083018661230a565b6126716020830185612058565b61267e604083018461230a565b949350505050565b7f4e487b7100000000000000000000000000000000000000000000000000000000600052601160045260246000fd5b60006126c082611f77565b91507fffffffffffffffffffffffffffffffffffffffffffffffffffffffffffffffff82036126f2576126f1612686565b5b600182019050919050565b600063ffffffff82169050919050565b6000612718826126fd565b915063ffffffff820361272e5761272d612686565b5b600182019050919050565b600082825260208201905092915050565b7f23746f6b656e73203e20237061636b6574730000000000000000000000000000600082015250565b6000612780601283612739565b915061278b8261274a565b602082019050919050565b600060208201905081810360008301526127af81612773565b9050919050565b7f4174206c65617374203120726563697069656e74000000000000000000000000600082015250565b60006127ec601483612739565b91506127f7826127b6565b602082019050919050565b6000602082019050818103600083015261281b816127df565b9050919050565b7f4174206d6f7374203130303020726563697069656e7473000000000000000000600082015250565b6000612858601783612739565b915061286382612822565b602082019050919050565b600060208201905081810360008301526128878161284b565b9050919050565b7f556e7265636f676e697a61626c6520746f6b656e207479706500000000000000600082015250565b60006128c4601983612739565b91506128cf8261288e565b602082019050919050565b600060208201905081810360008301526128f3816128b7565b9050919050565b7f57726f6e67204554480000000000000000000000000000000000000000000000600082015250565b6000612930600983612739565b915061293b826128fa565b602082019050919050565b6000602082019050818103600083015261295f81612923565b9050919050565b60008151905061297581611f81565b92915050565b60006020828403121561299157612990611ee2565b5b600061299f84828501612966565b91505092915050565b60006129b382611f77565b91506129be83611f77565b92508282039050818111156129d6576129d5612686565b5b92915050565b7f237265636569766564203e20237061636b657473000000000000000000000000600082015250565b6000612a12601483612739565b9150612a1d826129dc565b602082019050919050565b60006020820190508181036000830152612a4181612a05565b9050919050565b60008160601b9050919050565b6000612a6082612a48565b9050919050565b6000612a7282612a55565b9050919050565b612a8a612a8582611f0c565b612a67565b82525050565b6000819050919050565b612aab612aa682611f77565b612a90565b82525050565b60008160e01b9050919050565b6000612ac982612ab1565b9050919050565b612ae1612adc826126fd565b612abe565b82525050565b6000819050919050565b6000819050919050565b612b0c612b0782612ae7565b612af1565b82525050565b6000612b1e8287612a79565b601482019150612b2e8286612a9a565b602082019150612b3e8285612ad0565b600482019150612b4e8284612afb565b60208201915081905095945050505050565b600081519050919050565b60005b83811015612b89578082015181840152602081019050612b6e565b60008484015250505050565b6000612ba082612b60565b612baa8185612739565b9350612bba818560208601612b6b565b612bc3816120e0565b840191505092915050565b600061014082019050612be4600083018d61230a565b612bf1602083018c61230a565b8181036040830152612c03818b612b95565b90508181036060830152612c17818a612b95565b9050612c266080830189612058565b612c3360a083018861230a565b612c4060c0830187612058565b612c4d60e083018661230a565b612c5b610100830185612444565b612c6961012083018461230a565b9b9a5050505050505050505050565b7f4578706972656400000000000000000000000000000000000000000000000000600082015250565b6000612cae600783612739565b9150612cb982612c78565b602082019050919050565b60006020820190508181036000830152612cdd81612ca1565b9050919050565b7f4f7574206f662073746f636b0000000000000000000000000000000000000000600082015250565b6000612d1a600c83612739565b9150612d2582612ce4565b602082019050919050565b60006020820190508181036000830152612d4981612d0d565b9050919050565b7f566572696669636174696f6e206661696c656400000000000000000000000000600082015250565b6000612d86601383612739565b9150612d9182612d50565b602082019050919050565b60006020820190508181036000830152612db581612d79565b9050919050565b7f4f7574206f66206d61696e696e672c20706c656173652072656f627461696e2060008201527f746865207369676e617475726500000000000000000000000000000000000000602082015250565b6000612e18602d83612739565b9150612e2382612dbc565b604082019050919050565b60006020820190508181036000830152612e4781612e0b565b9050919050565b7f416c726561647920636c61696d65640000000000000000000000000000000000600082015250565b6000612e84600f83612739565b9150612e8f82612e4e565b602082019050919050565b60006020820190508181036000830152612eb381612e77565b9050919050565b6000612ec582611f77565b9150612ed083611f77565b9250828201905080821115612ee857612ee7612686565b5b92915050565b6000608082019050612f03600083018761230a565b612f106020830186612058565b612f1d604083018561230a565b612f2a6060830184612058565b95945050505050565b7f496e76616c69642072616e676500000000000000000000000000000000000000600082015250565b6000612f69600d83612739565b9150612f7482612f33565b602082019050919050565b60006020820190508181036000830152612f9881612f5c565b9050919050565b7f456e6420696e646578206f7574206f662072616e676500000000000000000000600082015250565b6000612fd5601683612739565b9150612fe082612f9f565b602082019050919050565b6000602082019050818103600083015261300481612fc8565b9050919050565b7f6e6f742045787069726564000000000000000000000000000000000000000000600082015250565b6000613041600b83612739565b915061304c8261300b565b602082019050919050565b6000602082019050818103600083015261307081613034565b9050919050565b7f686173206e6f2076616c75650000000000000000000000000000000000000000600082015250565b60006130ad600c83612739565b91506130b882613077565b602082019050919050565b600060208201905081810360008301526130dc816130a0565b9050919050565b7f4f776e61626c653a206e6577206f776e657220697320746865207a65726f206160008201527f6464726573730000000000000000000000000000000000000000000000000000602082015250565b600061313f602683612739565b915061314a826130e3565b604082019050919050565b6000602082019050818103600083015261316e81613132565b9050919050565b7f4f776e61626c653a2063616c6c6572206973206e6f7420746865206f776e6572600082015250565b60006131ab602083612739565b91506131b682613175565b602082019050919050565b600060208201905081810360008301526131da8161319e565b9050919050565b60006060820190506131f66000830186612058565b6132036020830185612058565b613210604083018461230a565b949350505050565b7f56616c7565206f7574206f662072616e676520554e424f580000000000000000600082015250565b600061324e601883612739565b915061325982613218565b602082019050919050565b6000602082019050818103600083015261327d81613241565b9050919050565b600081519050919050565b600081905092915050565b60006132a582613284565b6132af818561328f565b93506132bf818560208601612b6b565b80840191505092915050565b60006132d7828761329a565b91506132e38286612a9a565b6020820191506132f38285612a9a565b6020820191506133038284612a79565b60148201915081905095945050505050565b600060408201905061332a6000830185612058565b613337602083018461230a565b9392505050565b60008151905061334d816120aa565b92915050565b60006020828403121561336957613368611ee2565b5b60006133778482850161333e565b91505092915050565b7f5361666545524332303a204552433230206f7065726174696f6e20646964206e60008201527f6f74207375636365656400000000000000000000000000000000000000000000602082015250565b60006133dc602a83612739565b91506133e782613380565b604082019050919050565b6000602082019050818103600083015261340b816133cf565b9050919050565b7f56616c7565206f7574206f662072616e676520424f5800000000000000000000600082015250565b6000613448601683612739565b915061345382613412565b602082019050919050565b600060208201905081810360008301526134778161343b565b9050919050565b7f4e487b7100000000000000000000000000000000000000000000000000000000600052602160045260246000fd5b7f45434453413a20696e76616c6964207369676e61747572650000000000000000600082015250565b60006134e3601883612739565b91506134ee826134ad565b602082019050919050565b60006020820190508181036000830152613512816134d6565b9050919050565b7f45434453413a20696e76616c6964207369676e6174757265206c656e67746800600082015250565b600061354f601f83612739565b915061355a82613519565b602082019050919050565b6000602082019050818103600083015261357e81613542565b9050919050565b7f45434453413a20696e76616c6964207369676e6174757265202773272076616c60008201527f7565000000000000000000000000000000000000000000000000000000000000602082015250565b60006135e1602283612739565b91506135ec82613585565b604082019050919050565b60006020820190508181036000830152613610816135d4565b9050919050565b7f416464726573733a20696e73756666696369656e742062616c616e636520666f60008201527f722063616c6c0000000000000000000000000000000000000000000000000000602082015250565b6000613673602683612739565b915061367e82613617565b604082019050919050565b600060208201905081810360008301526136a281613666565b9050919050565b60006136b5828461329a565b915081905092915050565b6136c981612ae7565b82525050565b600060ff82169050919050565b6136e5816136cf565b82525050565b600060808201905061370060008301876136c0565b61370d60208301866136dc565b61371a60408301856136c0565b61372760608301846136c0565b95945050505050565b7f416464726573733a2063616c6c20746f206e6f6e2d636f6e7472616374000000600082015250565b6000613766601d83612739565b915061377182613730565b602082019050919050565b6000602082019050818103600083015261379581613759565b9050919050565b600060208201905081810360008301526137b68184612b95565b90509291505056fe1946696e546f6b656e205265645061636b6574205369676e6564204d6573736167653a0a3332a264697066735822122017d7c987f8e56df1b4785b90c8f4e3251d92932b665478991b9b04bebd4196f764736f6c63430008120033",
			"opcodes": "PUSH1 0x80 PUSH1 0x40 MSTORE CALLVALUE DUP1 ISZERO PUSH3 0x11 JUMPI PUSH1 0x0 DUP1 REVERT JUMPDEST POP PUSH1 0x40 MLOAD PUSH3 0x3B79 CODESIZE SUB DUP1 PUSH3 0x3B79 DUP4 CODECOPY DUP2 DUP2 ADD PUSH1 0x40 MSTORE DUP2 ADD SWAP1 PUSH3 0x37 SWAP2 SWAP1 PUSH3 0x206 JUMP JUMPDEST PUSH3 0x57 PUSH3 0x4B PUSH3 0xD0 PUSH1 0x20 SHL PUSH1 0x20 SHR JUMP JUMPDEST PUSH3 0xD8 PUSH1 0x20 SHL PUSH1 0x20 SHR JUMP JUMPDEST DUP1 PUSH1 0x5 PUSH1 0x0 PUSH2 0x100 EXP DUP2 SLOAD DUP2 PUSH20 0xFFFFFFFFFFFFFFFFFFFFFFFFFFFFFFFFFFFFFFFF MUL NOT AND SWAP1 DUP4 PUSH20 0xFFFFFFFFFFFFFFFFFFFFFFFFFFFFFFFFFFFFFFFF AND MUL OR SWAP1 SSTORE POP TIMESTAMP CALLER PUSH1 0x40 MLOAD PUSH1 0x20 ADD PUSH3 0xAD SWAP3 SWAP2 SWAP1 PUSH3 0x312 JUMP JUMPDEST PUSH1 0x40 MLOAD PUSH1 0x20 DUP2 DUP4 SUB SUB DUP2 MSTORE SWAP1 PUSH1 0x40 MSTORE DUP1 MLOAD SWAP1 PUSH1 0x20 ADD KECCAK256 PUSH1 0x4 DUP2 SWAP1 SSTORE POP POP PUSH3 0x34F JUMP JUMPDEST PUSH1 0x0 CALLER SWAP1 POP SWAP1 JUMP JUMPDEST PUSH1 0x0 DUP1 PUSH1 0x0 SWAP1 SLOAD SWAP1 PUSH2 0x100 EXP SWAP1 DIV PUSH20 0xFFFFFFFFFFFFFFFFFFFFFFFFFFFFFFFFFFFFFFFF AND SWAP1 POP DUP2 PUSH1 0x0 DUP1 PUSH2 0x100 EXP DUP2 SLOAD DUP2 PUSH20 0xFFFFFFFFFFFFFFFFFFFFFFFFFFFFFFFFFFFFFFFF MUL NOT AND SWAP1 DUP4 PUSH20 0xFFFFFFFFFFFFFFFFFFFFFFFFFFFFFFFFFFFFFFFF AND MUL OR SWAP1 SSTORE POP DUP2 PUSH20 0xFFFFFFFFFFFFFFFFFFFFFFFFFFFFFFFFFFFFFFFF AND DUP2 PUSH20 0xFFFFFFFFFFFFFFFFFFFFFFFFFFFFFFFFFFFFFFFF AND PUSH32 0x8BE0079C531659141344CD1FD0A4F28419497F9722A3DAAFE3B4186F6B6457E0 PUSH1 0x40 MLOAD PUSH1 0x40 MLOAD DUP1 SWAP2 SUB SWAP1 LOG3 POP POP JUMP JUMPDEST PUSH1 0x0 DUP1 REVERT JUMPDEST PUSH1 0x0 PUSH20 0xFFFFFFFFFFFFFFFFFFFFFFFFFFFFFFFFFFFFFFFF DUP3 AND SWAP1 POP SWAP2 SWAP1 POP JUMP JUMPDEST PUSH1 0x0 PUSH3 0x1CE DUP3 PUSH3 0x1A1 JUMP JUMPDEST SWAP1 POP SWAP2 SWAP1 POP JUMP JUMPDEST PUSH3 0x1E0 DUP2 PUSH3 0x1C1 JUMP JUMPDEST DUP2 EQ PUSH3 0x1EC JUMPI PUSH1 0x0 DUP1 REVERT JUMPDEST POP JUMP JUMPDEST PUSH1 0x0 DUP2 MLOAD SWAP1 POP PUSH3 0x200 DUP2 PUSH3 0x1D5 JUMP JUMPDEST SWAP3 SWAP2 POP POP JUMP JUMPDEST PUSH1 0x0 PUSH1 0x20 DUP3 DUP5 SUB SLT ISZERO PUSH3 0x21F JUMPI PUSH3 0x21E PUSH3 0x19C JUMP JUMPDEST JUMPDEST PUSH1 0x0 PUSH3 0x22F DUP5 DUP3 DUP6 ADD PUSH3 0x1EF JUMP JUMPDEST SWAP2 POP POP SWAP3 SWAP2 POP POP JUMP JUMPDEST PUSH1 0x0 DUP2 SWAP1 POP SWAP3 SWAP2 POP POP JUMP JUMPDEST PUSH32 0x46696E546F6B656E20526564205061636B657400000000000000000000000000 PUSH1 0x0 DUP3 ADD MSTORE POP JUMP JUMPDEST PUSH1 0x0 PUSH3 0x27B PUSH1 0x13 DUP4 PUSH3 0x238 JUMP JUMPDEST SWAP2 POP PUSH3 0x288 DUP3 PUSH3 0x243 JUMP JUMPDEST PUSH1 0x13 DUP3 ADD SWAP1 POP SWAP2 SWAP1 POP JUMP JUMPDEST PUSH1 0x0 DUP2 SWAP1 POP SWAP2 SWAP1 POP JUMP JUMPDEST PUSH1 0x0 DUP2 SWAP1 POP SWAP2 SWAP1 POP JUMP JUMPDEST PUSH3 0x2BC PUSH3 0x2B6 DUP3 PUSH3 0x293 JUMP JUMPDEST PUSH3 0x29D JUMP JUMPDEST DUP3 MSTORE POP POP JUMP JUMPDEST PUSH1 0x0 DUP2 PUSH1 0x60 SHL SWAP1 POP SWAP2 SWAP1 POP JUMP JUMPDEST PUSH1 0x0 PUSH3 0x2DC DUP3 PUSH3 0x2C2 JUMP JUMPDEST SWAP1 POP SWAP2 SWAP1 POP JUMP JUMPDEST PUSH1 0x0 PUSH3 0x2F0 DUP3 PUSH3 0x2CF JUMP JUMPDEST SWAP1 POP SWAP2 SWAP1 POP JUMP JUMPDEST PUSH3 0x30C PUSH3 0x306 DUP3 PUSH3 0x1C1 JUMP JUMPDEST PUSH3 0x2E3 JUMP JUMPDEST DUP3 MSTORE POP POP JUMP JUMPDEST PUSH1 0x0 PUSH3 0x31F DUP3 PUSH3 0x26C JUMP JUMPDEST SWAP2 POP PUSH3 0x32D DUP3 DUP6 PUSH3 0x2A7 JUMP JUMPDEST PUSH1 0x20 DUP3 ADD SWAP2 POP PUSH3 0x33F DUP3 DUP5 PUSH3 0x2F7 JUMP JUMPDEST PUSH1 0x14 DUP3 ADD SWAP2 POP DUP2 SWAP1 POP SWAP4 SWAP3 POP POP POP JUMP JUMPDEST PUSH2 0x381A DUP1 PUSH3 0x35F PUSH1 0x0 CODECOPY PUSH1 0x0 RETURN INVALID PUSH1 0x80 PUSH1 0x40 MSTORE PUSH1 0x4 CALLDATASIZE LT PUSH2 0xA7 JUMPI PUSH1 0x0 CALLDATALOAD PUSH1 0xE0 SHR DUP1 PUSH4 0x715018A6 GT PUSH2 0x64 JUMPI DUP1 PUSH4 0x715018A6 EQ PUSH2 0x1D5 JUMPI DUP1 PUSH4 0x753999EF EQ PUSH2 0x1EC JUMPI DUP1 PUSH4 0x8DA5CB5B EQ PUSH2 0x22F JUMPI DUP1 PUSH4 0xAB08D166 EQ PUSH2 0x25A JUMPI DUP1 PUSH4 0xE1BF905A EQ PUSH2 0x298 JUMPI DUP1 PUSH4 0xF2FDE38B EQ PUSH2 0x2C1 JUMPI PUSH2 0xA7 JUMP JUMPDEST DUP1 PUSH4 0x97EB759 EQ PUSH2 0xAC JUMPI DUP1 PUSH4 0x15CBADFF EQ PUSH2 0xD5 JUMPI DUP1 PUSH4 0x3435926F EQ PUSH2 0xFE JUMPI DUP1 PUSH4 0x510BE06B EQ PUSH2 0x13D JUMPI DUP1 PUSH4 0x535E1C09 EQ PUSH2 0x16D JUMPI DUP1 PUSH4 0x5EDDD157 EQ PUSH2 0x198 JUMPI JUMPDEST PUSH1 0x0 DUP1 REVERT JUMPDEST CALLVALUE DUP1 ISZERO PUSH2 0xB8 JUMPI PUSH1 0x0 DUP1 REVERT JUMPDEST POP PUSH2 0xD3 PUSH1 0x4 DUP1 CALLDATASIZE SUB DUP2 ADD SWAP1 PUSH2 0xCE SWAP2 SWAP1 PUSH2 0x1F4A JUMP JUMPDEST PUSH2 0x2EA JUMP JUMPDEST STOP JUMPDEST CALLVALUE DUP1 ISZERO PUSH2 0xE1 JUMPI PUSH1 0x0 DUP1 REVERT JUMPDEST POP PUSH2 0xFC PUSH1 0x4 DUP1 CALLDATASIZE SUB DUP2 ADD SWAP1 PUSH2 0xF7 SWAP2 SWAP1 PUSH2 0x1FAD JUMP JUMPDEST PUSH2 0x336 JUMP JUMPDEST STOP JUMPDEST CALLVALUE DUP1 ISZERO PUSH2 0x10A JUMPI PUSH1 0x0 DUP1 REVERT JUMPDEST POP PUSH2 0x125 PUSH1 0x4 DUP1 CALLDATASIZE SUB DUP2 ADD SWAP1 PUSH2 0x120 SWAP2 SWAP1 PUSH2 0x1FED JUMP JUMPDEST PUSH2 0x496 JUMP JUMPDEST PUSH1 0x40 MLOAD PUSH2 0x134 SWAP4 SWAP3 SWAP2 SWAP1 PUSH2 0x2067 JUMP JUMPDEST PUSH1 0x40 MLOAD DUP1 SWAP2 SUB SWAP1 RETURN JUMPDEST PUSH2 0x157 PUSH1 0x4 DUP1 CALLDATASIZE SUB DUP2 ADD SWAP1 PUSH2 0x152 SWAP2 SWAP1 PUSH2 0x221C JUMP JUMPDEST PUSH2 0x51E JUMP JUMPDEST PUSH1 0x40 MLOAD PUSH2 0x164 SWAP2 SWAP1 PUSH2 0x2319 JUMP JUMPDEST PUSH1 0x40 MLOAD DUP1 SWAP2 SUB SWAP1 RETURN JUMPDEST CALLVALUE DUP1 ISZERO PUSH2 0x179 JUMPI PUSH1 0x0 DUP1 REVERT JUMPDEST POP PUSH2 0x182 PUSH2 0xA2D JUMP JUMPDEST PUSH1 0x40 MLOAD PUSH2 0x18F SWAP2 SWAP1 PUSH2 0x2319 JUMP JUMPDEST PUSH1 0x40 MLOAD DUP1 SWAP2 SUB SWAP1 RETURN JUMPDEST CALLVALUE DUP1 ISZERO PUSH2 0x1A4 JUMPI PUSH1 0x0 DUP1 REVERT JUMPDEST POP PUSH2 0x1BF PUSH1 0x4 DUP1 CALLDATASIZE SUB DUP2 ADD SWAP1 PUSH2 0x1BA SWAP2 SWAP1 PUSH2 0x23D5 JUMP JUMPDEST PUSH2 0xA3A JUMP JUMPDEST PUSH1 0x40 MLOAD PUSH2 0x1CC SWAP2 SWAP1 PUSH2 0x2319 JUMP JUMPDEST PUSH1 0x40 MLOAD DUP1 SWAP2 SUB SWAP1 RETURN JUMPDEST CALLVALUE DUP1 ISZERO PUSH2 0x1E1 JUMPI PUSH1 0x0 DUP1 REVERT JUMPDEST POP PUSH2 0x1EA PUSH2 0xE51 JUMP JUMPDEST STOP JUMPDEST CALLVALUE DUP1 ISZERO PUSH2 0x1F8 JUMPI PUSH1 0x0 DUP1 REVERT JUMPDEST POP PUSH2 0x213 PUSH1 0x4 DUP1 CALLDATASIZE SUB DUP2 ADD SWAP1 PUSH2 0x20E SWAP2 SWAP1 PUSH2 0x1FED JUMP JUMPDEST PUSH2 0xE65 JUMP JUMPDEST PUSH1 0x40 MLOAD PUSH2 0x226 SWAP8 SWAP7 SWAP6 SWAP5 SWAP4 SWAP3 SWAP2 SWAP1 PUSH2 0x2453 JUMP JUMPDEST PUSH1 0x40 MLOAD DUP1 SWAP2 SUB SWAP1 RETURN JUMPDEST CALLVALUE DUP1 ISZERO PUSH2 0x23B JUMPI PUSH1 0x0 DUP1 REVERT JUMPDEST POP PUSH2 0x244 PUSH2 0xF72 JUMP JUMPDEST PUSH1 0x40 MLOAD PUSH2 0x251 SWAP2 SWAP1 PUSH2 0x24C2 JUMP JUMPDEST PUSH1 0x40 MLOAD DUP1 SWAP2 SUB SWAP1 RETURN JUMPDEST CALLVALUE DUP1 ISZERO PUSH2 0x266 JUMPI PUSH1 0x0 DUP1 REVERT JUMPDEST POP PUSH2 0x281 PUSH1 0x4 DUP1 CALLDATASIZE SUB DUP2 ADD SWAP1 PUSH2 0x27C SWAP2 SWAP1 PUSH2 0x1FAD JUMP JUMPDEST PUSH2 0xF9B JUMP JUMPDEST PUSH1 0x40 MLOAD PUSH2 0x28F SWAP3 SWAP2 SWAP1 PUSH2 0x25F0 JUMP JUMPDEST PUSH1 0x40 MLOAD DUP1 SWAP2 SUB SWAP1 RETURN JUMPDEST CALLVALUE DUP1 ISZERO PUSH2 0x2A4 JUMPI PUSH1 0x0 DUP1 REVERT JUMPDEST POP PUSH2 0x2BF PUSH1 0x4 DUP1 CALLDATASIZE SUB DUP2 ADD SWAP1 PUSH2 0x2BA SWAP2 SWAP1 PUSH2 0x1FED JUMP JUMPDEST PUSH2 0x11DC JUMP JUMPDEST STOP JUMPDEST CALLVALUE DUP1 ISZERO PUSH2 0x2CD JUMPI PUSH1 0x0 DUP1 REVERT JUMPDEST POP PUSH2 0x2E8 PUSH1 0x4 DUP1 CALLDATASIZE SUB DUP2 ADD SWAP1 PUSH2 0x2E3 SWAP2 SWAP1 PUSH2 0x1F4A JUMP JUMPDEST PUSH2 0x13FA JUMP JUMPDEST STOP JUMPDEST PUSH2 0x2F2 PUSH2 0x147D JUMP JUMPDEST DUP1 PUSH1 0x5 PUSH1 0x0 PUSH2 0x100 EXP DUP2 SLOAD DUP2 PUSH20 0xFFFFFFFFFFFFFFFFFFFFFFFFFFFFFFFFFFFFFFFF MUL NOT AND SWAP1 DUP4 PUSH20 0xFFFFFFFFFFFFFFFFFFFFFFFFFFFFFFFFFFFFFFFF AND MUL OR SWAP1 SSTORE POP POP JUMP JUMPDEST PUSH2 0x33E PUSH2 0x147D JUMP JUMPDEST PUSH1 0x0 DUP1 PUSH2 0x34B DUP5 DUP5 PUSH2 0xF9B JUMP JUMPDEST SWAP2 POP SWAP2 POP PUSH1 0x0 JUMPDEST DUP2 DUP2 LT ISZERO PUSH2 0x48F JUMPI PUSH1 0x0 DUP4 DUP3 DUP2 MLOAD DUP2 LT PUSH2 0x36F JUMPI PUSH2 0x36E PUSH2 0x2620 JUMP JUMPDEST JUMPDEST PUSH1 0x20 MUL PUSH1 0x20 ADD ADD MLOAD SWAP1 POP PUSH1 0x0 DUP2 PUSH1 0x60 ADD MLOAD SUB PUSH2 0x3DC JUMPI PUSH2 0x38D PUSH2 0xF72 JUMP JUMPDEST PUSH20 0xFFFFFFFFFFFFFFFFFFFFFFFFFFFFFFFFFFFFFFFF AND PUSH2 0x8FC DUP3 PUSH1 0x40 ADD MLOAD SWAP1 DUP2 ISZERO MUL SWAP1 PUSH1 0x40 MLOAD PUSH1 0x0 PUSH1 0x40 MLOAD DUP1 DUP4 SUB DUP2 DUP6 DUP9 DUP9 CALL SWAP4 POP POP POP POP ISZERO DUP1 ISZERO PUSH2 0x3D6 JUMPI RETURNDATASIZE PUSH1 0x0 DUP1 RETURNDATACOPY RETURNDATASIZE PUSH1 0x0 REVERT JUMPDEST POP PUSH2 0x404 JUMP JUMPDEST PUSH1 0x1 DUP2 PUSH1 0x60 ADD MLOAD SUB PUSH2 0x403 JUMPI PUSH2 0x402 DUP2 PUSH1 0x20 ADD MLOAD PUSH2 0x3F8 PUSH2 0xF72 JUMP JUMPDEST DUP4 PUSH1 0x40 ADD MLOAD PUSH2 0x14FB JUMP JUMPDEST JUMPDEST JUMPDEST PUSH1 0x1 PUSH1 0x2 PUSH1 0x0 DUP4 PUSH1 0x0 ADD MLOAD DUP2 MSTORE PUSH1 0x20 ADD SWAP1 DUP2 MSTORE PUSH1 0x20 ADD PUSH1 0x0 KECCAK256 PUSH1 0x0 PUSH2 0x100 EXP DUP2 SLOAD DUP2 PUSH1 0xFF MUL NOT AND SWAP1 DUP4 ISZERO ISZERO MUL OR SWAP1 SSTORE POP PUSH32 0x376ABA31CA2F718ED24FA28BAB1423390EC32E6423AFC7D61E74BC5A20A84339 DUP2 PUSH1 0x0 ADD MLOAD DUP3 PUSH1 0x20 ADD MLOAD DUP4 PUSH1 0x40 ADD MLOAD PUSH1 0x40 MLOAD PUSH2 0x473 SWAP4 SWAP3 SWAP2 SWAP1 PUSH2 0x264F JUMP JUMPDEST PUSH1 0x40 MLOAD DUP1 SWAP2 SUB SWAP1 LOG1 POP DUP1 DUP1 PUSH2 0x487 SWAP1 PUSH2 0x26B5 JUMP JUMPDEST SWAP2 POP POP PUSH2 0x352 JUMP JUMPDEST POP POP POP POP POP JUMP JUMPDEST PUSH1 0x3 PUSH1 0x20 MSTORE DUP1 PUSH1 0x0 MSTORE PUSH1 0x40 PUSH1 0x0 KECCAK256 PUSH1 0x0 SWAP2 POP SWAP1 POP DUP1 PUSH1 0x0 ADD PUSH1 0x40 MLOAD DUP1 PUSH1 0x40 ADD PUSH1 0x40 MSTORE SWAP1 DUP2 PUSH1 0x0 DUP3 ADD SLOAD DUP2 MSTORE PUSH1 0x20 ADD PUSH1 0x1 DUP3 ADD SLOAD DUP2 MSTORE POP POP SWAP1 DUP1 PUSH1 0x3 ADD PUSH1 0x0 SWAP1 SLOAD SWAP1 PUSH2 0x100 EXP SWAP1 DIV PUSH20 0xFFFFFFFFFFFFFFFFFFFFFFFFFFFFFFFFFFFFFFFF AND SWAP1 DUP1 PUSH1 0x4 ADD PUSH1 0x0 SWAP1 SLOAD SWAP1 PUSH2 0x100 EXP SWAP1 DIV PUSH20 0xFFFFFFFFFFFFFFFFFFFFFFFFFFFFFFFFFFFFFFFF AND SWAP1 POP DUP4 JUMP JUMPDEST PUSH1 0x0 DUP1 PUSH1 0x14 DUP2 DUP2 SWAP1 SLOAD SWAP1 PUSH2 0x100 EXP SWAP1 DIV PUSH4 0xFFFFFFFF AND DUP1 SWAP3 SWAP2 SWAP1 PUSH2 0x541 SWAP1 PUSH2 0x270D JUMP JUMPDEST SWAP2 SWAP1 PUSH2 0x100 EXP DUP2 SLOAD DUP2 PUSH4 0xFFFFFFFF MUL NOT AND SWAP1 DUP4 PUSH4 0xFFFFFFFF AND MUL OR SWAP1 SSTORE POP POP DUP9 DUP3 LT ISZERO PUSH2 0x5A3 JUMPI PUSH1 0x40 MLOAD PUSH32 0x8C379A000000000000000000000000000000000000000000000000000000000 DUP2 MSTORE PUSH1 0x4 ADD PUSH2 0x59A SWAP1 PUSH2 0x2796 JUMP JUMPDEST PUSH1 0x40 MLOAD DUP1 SWAP2 SUB SWAP1 REVERT JUMPDEST PUSH1 0x0 DUP10 GT PUSH2 0x5E6 JUMPI PUSH1 0x40 MLOAD PUSH32 0x8C379A000000000000000000000000000000000000000000000000000000000 DUP2 MSTORE PUSH1 0x4 ADD PUSH2 0x5DD SWAP1 PUSH2 0x2802 JUMP JUMPDEST PUSH1 0x40 MLOAD DUP1 SWAP2 SUB SWAP1 REVERT JUMPDEST PUSH2 0x3E8 DUP10 GT ISZERO PUSH2 0x62B JUMPI PUSH1 0x40 MLOAD PUSH32 0x8C379A000000000000000000000000000000000000000000000000000000000 DUP2 MSTORE PUSH1 0x4 ADD PUSH2 0x622 SWAP1 PUSH2 0x286E JUMP JUMPDEST PUSH1 0x40 MLOAD DUP1 SWAP2 SUB SWAP1 REVERT JUMPDEST PUSH1 0x0 DUP5 EQ DUP1 PUSH2 0x63A JUMPI POP PUSH1 0x1 DUP5 EQ JUMPDEST PUSH2 0x679 JUMPI PUSH1 0x40 MLOAD PUSH32 0x8C379A000000000000000000000000000000000000000000000000000000000 DUP2 MSTORE PUSH1 0x4 ADD PUSH2 0x670 SWAP1 PUSH2 0x28DA JUMP JUMPDEST PUSH1 0x40 MLOAD DUP1 SWAP2 SUB SWAP1 REVERT JUMPDEST PUSH1 0x0 DUP3 SWAP1 POP PUSH1 0x0 DUP6 SUB PUSH2 0x6CD JUMPI DUP3 CALLVALUE EQ PUSH2 0x6C8 JUMPI PUSH1 0x40 MLOAD PUSH32 0x8C379A000000000000000000000000000000000000000000000000000000000 DUP2 MSTORE PUSH1 0x4 ADD PUSH2 0x6BF SWAP1 PUSH2 0x2946 JUMP JUMPDEST PUSH1 0x40 MLOAD DUP1 SWAP2 SUB SWAP1 REVERT JUMPDEST PUSH2 0x853 JUMP JUMPDEST PUSH1 0x1 DUP6 SUB PUSH2 0x852 JUMPI PUSH1 0x0 DUP5 PUSH20 0xFFFFFFFFFFFFFFFFFFFFFFFFFFFFFFFFFFFFFFFF AND PUSH4 0x70A08231 ADDRESS PUSH1 0x40 MLOAD DUP3 PUSH4 0xFFFFFFFF AND PUSH1 0xE0 SHL DUP2 MSTORE PUSH1 0x4 ADD PUSH2 0x710 SWAP2 SWAP1 PUSH2 0x24C2 JUMP JUMPDEST PUSH1 0x20 PUSH1 0x40 MLOAD DUP1 DUP4 SUB DUP2 DUP7 GAS STATICCALL ISZERO DUP1 ISZERO PUSH2 0x72D JUMPI RETURNDATASIZE PUSH1 0x0 DUP1 RETURNDATACOPY RETURNDATASIZE PUSH1 0x0 REVERT JUMPDEST POP POP POP POP PUSH1 0x40 MLOAD RETURNDATASIZE PUSH1 0x1F NOT PUSH1 0x1F DUP3 ADD AND DUP3 ADD DUP1 PUSH1 0x40 MSTORE POP DUP2 ADD SWAP1 PUSH2 0x751 SWAP2 SWAP1 PUSH2 0x297B JUMP JUMPDEST SWAP1 POP PUSH2 0x780 CALLER ADDRESS DUP7 DUP9 PUSH20 0xFFFFFFFFFFFFFFFFFFFFFFFFFFFFFFFFFFFFFFFF AND PUSH2 0x152B SWAP1 SWAP4 SWAP3 SWAP2 SWAP1 PUSH4 0xFFFFFFFF AND JUMP JUMPDEST PUSH1 0x0 DUP6 PUSH20 0xFFFFFFFFFFFFFFFFFFFFFFFFFFFFFFFFFFFFFFFF AND PUSH4 0x70A08231 ADDRESS PUSH1 0x40 MLOAD DUP3 PUSH4 0xFFFFFFFF AND PUSH1 0xE0 SHL DUP2 MSTORE PUSH1 0x4 ADD PUSH2 0x7BB SWAP2 SWAP1 PUSH2 0x24C2 JUMP JUMPDEST PUSH1 0x20 PUSH1 0x40 MLOAD DUP1 DUP4 SUB DUP2 DUP7 GAS STATICCALL ISZERO DUP1 ISZERO PUSH2 0x7D8 JUMPI RETURNDATASIZE PUSH1 0x0 DUP1 RETURNDATACOPY RETURNDATASIZE PUSH1 0x0 REVERT JUMPDEST POP POP POP POP PUSH1 0x40 MLOAD RETURNDATASIZE PUSH1 0x1F NOT PUSH1 0x1F DUP3 ADD AND DUP3 ADD DUP1 PUSH1 0x40 MSTORE POP DUP2 ADD SWAP1 PUSH2 0x7FC SWAP2 SWAP1 PUSH2 0x297B JUMP JUMPDEST SWAP1 POP DUP2 DUP2 PUSH2 0x80A SWAP2 SWAP1 PUSH2 0x29A8 JUMP JUMPDEST SWAP3 POP DUP12 DUP4 LT ISZERO PUSH2 0x84F JUMPI PUSH1 0x40 MLOAD PUSH32 0x8C379A000000000000000000000000000000000000000000000000000000000 DUP2 MSTORE PUSH1 0x4 ADD PUSH2 0x846 SWAP1 PUSH2 0x2A28 JUMP JUMPDEST PUSH1 0x40 MLOAD DUP1 SWAP2 SUB SWAP1 REVERT JUMPDEST POP POP JUMPDEST JUMPDEST CALLER TIMESTAMP PUSH1 0x0 PUSH1 0x14 SWAP1 SLOAD SWAP1 PUSH2 0x100 EXP SWAP1 DIV PUSH4 0xFFFFFFFF AND PUSH1 0x4 SLOAD PUSH1 0x40 MLOAD PUSH1 0x20 ADD PUSH2 0x87E SWAP5 SWAP4 SWAP3 SWAP2 SWAP1 PUSH2 0x2B12 JUMP JUMPDEST PUSH1 0x40 MLOAD PUSH1 0x20 DUP2 DUP4 SUB SUB DUP2 MSTORE SWAP1 PUSH1 0x40 MSTORE DUP1 MLOAD SWAP1 PUSH1 0x20 ADD KECCAK256 PUSH1 0x0 SHR SWAP2 POP PUSH1 0x0 DUP10 PUSH2 0x8A7 JUMPI PUSH1 0x0 PUSH2 0x8AA JUMP JUMPDEST PUSH1 0x1 JUMPDEST PUSH1 0xFF AND SWAP1 POP PUSH1 0x0 PUSH1 0x3 PUSH1 0x0 DUP6 DUP2 MSTORE PUSH1 0x20 ADD SWAP1 DUP2 MSTORE PUSH1 0x20 ADD PUSH1 0x0 KECCAK256 SWAP1 POP PUSH2 0x8D0 DUP4 DUP12 PUSH2 0x15B4 JUMP JUMPDEST DUP2 PUSH1 0x0 ADD PUSH1 0x0 ADD DUP2 SWAP1 SSTORE POP PUSH2 0x8E7 DUP7 DUP14 DUP10 DUP6 PUSH2 0x15F2 JUMP JUMPDEST DUP2 PUSH1 0x0 ADD PUSH1 0x1 ADD DUP2 SWAP1 SSTORE POP PUSH1 0x5 PUSH1 0x0 SWAP1 SLOAD SWAP1 PUSH2 0x100 EXP SWAP1 DIV PUSH20 0xFFFFFFFFFFFFFFFFFFFFFFFFFFFFFFFFFFFFFFFF AND DUP2 PUSH1 0x3 ADD PUSH1 0x0 PUSH2 0x100 EXP DUP2 SLOAD DUP2 PUSH20 0xFFFFFFFFFFFFFFFFFFFFFFFFFFFFFFFFFFFFFFFF MUL NOT AND SWAP1 DUP4 PUSH20 0xFFFFFFFFFFFFFFFFFFFFFFFFFFFFFFFFFFFFFFFF AND MUL OR SWAP1 SSTORE POP CALLER DUP2 PUSH1 0x4 ADD PUSH1 0x0 PUSH2 0x100 EXP DUP2 SLOAD DUP2 PUSH20 0xFFFFFFFFFFFFFFFFFFFFFFFFFFFFFFFFFFFFFFFF MUL NOT AND SWAP1 DUP4 PUSH20 0xFFFFFFFFFFFFFFFFFFFFFFFFFFFFFFFFFFFFFFFF AND MUL OR SWAP1 SSTORE POP POP POP PUSH1 0x0 DUP11 SWAP1 POP PUSH1 0x0 DUP11 SWAP1 POP PUSH1 0x0 DUP11 SWAP1 POP PUSH1 0x1 DUP6 SWAP1 DUP1 PUSH1 0x1 DUP2 SLOAD ADD DUP1 DUP3 SSTORE DUP1 SWAP2 POP POP PUSH1 0x1 SWAP1 SUB SWAP1 PUSH1 0x0 MSTORE PUSH1 0x20 PUSH1 0x0 KECCAK256 ADD PUSH1 0x0 SWAP1 SWAP2 SWAP1 SWAP2 SWAP1 SWAP2 POP SSTORE PUSH32 0x52871F59806BC02F686FB16AB6F02E341DEF69C8C47D20B9E716FA69B3EB6380 DUP5 DUP7 DUP12 DUP14 CALLER TIMESTAMP DUP14 DUP11 DUP11 DUP11 PUSH1 0x40 MLOAD PUSH2 0xA15 SWAP11 SWAP10 SWAP9 SWAP8 SWAP7 SWAP6 SWAP5 SWAP4 SWAP3 SWAP2 SWAP1 PUSH2 0x2BCE JUMP JUMPDEST PUSH1 0x40 MLOAD DUP1 SWAP2 SUB SWAP1 LOG1 POP POP POP POP SWAP9 SWAP8 POP POP POP POP POP POP POP POP JUMP JUMPDEST PUSH1 0x0 PUSH1 0x1 DUP1 SLOAD SWAP1 POP SWAP1 POP SWAP1 JUMP JUMPDEST PUSH1 0x0 DUP1 PUSH1 0x3 PUSH1 0x0 DUP7 DUP2 MSTORE PUSH1 0x20 ADD SWAP1 DUP2 MSTORE PUSH1 0x20 ADD PUSH1 0x0 KECCAK256 SWAP1 POP PUSH1 0x0 DUP2 PUSH1 0x0 ADD PUSH1 0x40 MLOAD DUP1 PUSH1 0x40 ADD PUSH1 0x40 MSTORE SWAP1 DUP2 PUSH1 0x0 DUP3 ADD SLOAD DUP2 MSTORE PUSH1 0x20 ADD PUSH1 0x1 DUP3 ADD SLOAD DUP2 MSTORE POP POP SWAP1 POP TIMESTAMP PUSH2 0xA8B DUP3 PUSH1 0x0 ADD MLOAD PUSH1 0xE0 PUSH1 0x20 PUSH2 0x1671 JUMP JUMPDEST GT PUSH2 0xACB JUMPI PUSH1 0x40 MLOAD PUSH32 0x8C379A000000000000000000000000000000000000000000000000000000000 DUP2 MSTORE PUSH1 0x4 ADD PUSH2 0xAC2 SWAP1 PUSH2 0x2CC4 JUMP JUMPDEST PUSH1 0x40 MLOAD DUP1 SWAP2 SUB SWAP1 REVERT JUMPDEST PUSH1 0x0 PUSH2 0xADE DUP3 PUSH1 0x20 ADD MLOAD PUSH1 0xEF PUSH1 0xF PUSH2 0x1671 JUMP JUMPDEST SWAP1 POP PUSH1 0x0 PUSH2 0xAF3 DUP4 PUSH1 0x20 ADD MLOAD PUSH1 0xE0 PUSH1 0xF PUSH2 0x1671 JUMP JUMPDEST SWAP1 POP DUP2 DUP2 LT PUSH2 0xB37 JUMPI PUSH1 0x40 MLOAD PUSH32 0x8C379A000000000000000000000000000000000000000000000000000000000 DUP2 MSTORE PUSH1 0x4 ADD PUSH2 0xB2E SWAP1 PUSH2 0x2D30 JUMP JUMPDEST PUSH1 0x40 MLOAD DUP1 SWAP2 SUB SWAP1 REVERT JUMPDEST PUSH1 0x0 DUP5 PUSH1 0x3 ADD PUSH1 0x0 SWAP1 SLOAD SWAP1 PUSH2 0x100 EXP SWAP1 DIV PUSH20 0xFFFFFFFFFFFFFFFFFFFFFFFFFFFFFFFFFFFFFFFF AND SWAP1 POP PUSH2 0xB6D DUP8 DUP3 DUP12 DUP12 CALLER PUSH2 0x16D1 JUMP JUMPDEST PUSH2 0xBAC JUMPI PUSH1 0x40 MLOAD PUSH32 0x8C379A000000000000000000000000000000000000000000000000000000000 DUP2 MSTORE PUSH1 0x4 ADD PUSH2 0xBA3 SWAP1 PUSH2 0x2D9C JUMP JUMPDEST PUSH1 0x40 MLOAD DUP1 SWAP2 SUB SWAP1 REVERT JUMPDEST PUSH1 0x0 DUP9 SWAP1 POP PUSH1 0x0 PUSH2 0xBC4 DUP7 PUSH1 0x20 ADD MLOAD PUSH1 0xFE PUSH1 0x1 PUSH2 0x1671 JUMP JUMPDEST SWAP1 POP PUSH1 0x0 PUSH2 0xBD9 DUP8 PUSH1 0x0 ADD MLOAD PUSH1 0x80 PUSH1 0x60 PUSH2 0x1671 JUMP JUMPDEST SWAP1 POP DUP1 DUP4 GT ISZERO PUSH2 0xC1E JUMPI PUSH1 0x40 MLOAD PUSH32 0x8C379A000000000000000000000000000000000000000000000000000000000 DUP2 MSTORE PUSH1 0x4 ADD PUSH2 0xC15 SWAP1 PUSH2 0x2E2E JUMP JUMPDEST PUSH1 0x40 MLOAD DUP1 SWAP2 SUB SWAP1 REVERT JUMPDEST PUSH1 0x0 DUP4 DUP3 PUSH2 0xC2C SWAP2 SWAP1 PUSH2 0x29A8 JUMP JUMPDEST SUB PUSH2 0xC5E JUMPI PUSH1 0x1 PUSH1 0x2 PUSH1 0x0 DUP15 DUP2 MSTORE PUSH1 0x20 ADD SWAP1 DUP2 MSTORE PUSH1 0x20 ADD PUSH1 0x0 KECCAK256 PUSH1 0x0 PUSH2 0x100 EXP DUP2 SLOAD DUP2 PUSH1 0xFF MUL NOT AND SWAP1 DUP4 ISZERO ISZERO MUL OR SWAP1 SSTORE POP JUMPDEST PUSH2 0xC7B DUP8 PUSH1 0x0 ADD MLOAD PUSH1 0x80 PUSH1 0x60 DUP7 DUP6 PUSH2 0xC76 SWAP2 SWAP1 PUSH2 0x29A8 JUMP JUMPDEST PUSH2 0x176B JUMP JUMPDEST DUP9 PUSH1 0x0 ADD PUSH1 0x0 ADD DUP2 SWAP1 SSTORE POP PUSH1 0x0 DUP9 PUSH1 0x2 ADD PUSH1 0x0 CALLER PUSH20 0xFFFFFFFFFFFFFFFFFFFFFFFFFFFFFFFFFFFFFFFF AND PUSH20 0xFFFFFFFFFFFFFFFFFFFFFFFFFFFFFFFFFFFFFFFF AND DUP2 MSTORE PUSH1 0x20 ADD SWAP1 DUP2 MSTORE PUSH1 0x20 ADD PUSH1 0x0 KECCAK256 SLOAD EQ PUSH2 0xD0A JUMPI PUSH1 0x40 MLOAD PUSH32 0x8C379A000000000000000000000000000000000000000000000000000000000 DUP2 MSTORE PUSH1 0x4 ADD PUSH2 0xD01 SWAP1 PUSH2 0x2E9A JUMP JUMPDEST PUSH1 0x40 MLOAD DUP1 SWAP2 SUB SWAP1 REVERT JUMPDEST DUP3 DUP9 PUSH1 0x2 ADD PUSH1 0x0 CALLER PUSH20 0xFFFFFFFFFFFFFFFFFFFFFFFFFFFFFFFFFFFFFFFF AND PUSH20 0xFFFFFFFFFFFFFFFFFFFFFFFFFFFFFFFFFFFFFFFF AND DUP2 MSTORE PUSH1 0x20 ADD SWAP1 DUP2 MSTORE PUSH1 0x20 ADD PUSH1 0x0 KECCAK256 DUP2 SWAP1 SSTORE POP PUSH2 0xD6E DUP8 PUSH1 0x20 ADD MLOAD PUSH1 0xE0 PUSH1 0xF PUSH1 0x1 DUP10 PUSH2 0xD69 SWAP2 SWAP1 PUSH2 0x2EBA JUMP JUMPDEST PUSH2 0x176B JUMP JUMPDEST DUP9 PUSH1 0x0 ADD PUSH1 0x1 ADD DUP2 SWAP1 SSTORE POP PUSH1 0x0 DUP3 SUB PUSH2 0xDCD JUMPI CALLER PUSH20 0xFFFFFFFFFFFFFFFFFFFFFFFFFFFFFFFFFFFFFFFF AND PUSH2 0x8FC DUP5 SWAP1 DUP2 ISZERO MUL SWAP1 PUSH1 0x40 MLOAD PUSH1 0x0 PUSH1 0x40 MLOAD DUP1 DUP4 SUB DUP2 DUP6 DUP9 DUP9 CALL SWAP4 POP POP POP POP ISZERO DUP1 ISZERO PUSH2 0xDC7 JUMPI RETURNDATASIZE PUSH1 0x0 DUP1 RETURNDATACOPY RETURNDATASIZE PUSH1 0x0 REVERT JUMPDEST POP PUSH2 0xDF2 JUMP JUMPDEST PUSH1 0x1 DUP3 SUB PUSH2 0xDF1 JUMPI PUSH2 0xDF0 PUSH2 0xDE9 DUP9 PUSH1 0x20 ADD MLOAD PUSH1 0x40 PUSH1 0xA0 PUSH2 0x1671 JUMP JUMPDEST CALLER DUP6 PUSH2 0x14FB JUMP JUMPDEST JUMPDEST JUMPDEST PUSH32 0xAABD1CE8D77185358F8D53064D3F903D11FDC3B10C7A0865C9CDA2871981E5A9 DUP13 CALLER DUP6 PUSH2 0xE27 DUP12 PUSH1 0x20 ADD MLOAD PUSH1 0x40 PUSH1 0xA0 PUSH2 0x1671 JUMP JUMPDEST PUSH1 0x40 MLOAD PUSH2 0xE37 SWAP5 SWAP4 SWAP3 SWAP2 SWAP1 PUSH2 0x2EEE JUMP JUMPDEST PUSH1 0x40 MLOAD DUP1 SWAP2 SUB SWAP1 LOG1 DUP3 SWAP9 POP POP POP POP POP POP POP POP POP SWAP4 SWAP3 POP POP POP JUMP JUMPDEST PUSH2 0xE59 PUSH2 0x147D JUMP JUMPDEST PUSH2 0xE63 PUSH1 0x0 PUSH2 0x1786 JUMP JUMPDEST JUMP JUMPDEST PUSH1 0x0 DUP1 PUSH1 0x0 DUP1 PUSH1 0x0 DUP1 PUSH1 0x0 DUP1 PUSH1 0x3 PUSH1 0x0 DUP11 DUP2 MSTORE PUSH1 0x20 ADD SWAP1 DUP2 MSTORE PUSH1 0x20 ADD PUSH1 0x0 KECCAK256 SWAP1 POP PUSH1 0x0 DUP2 PUSH1 0x0 ADD PUSH1 0x40 MLOAD DUP1 PUSH1 0x40 ADD PUSH1 0x40 MSTORE SWAP1 DUP2 PUSH1 0x0 DUP3 ADD SLOAD DUP2 MSTORE PUSH1 0x20 ADD PUSH1 0x1 DUP3 ADD SLOAD DUP2 MSTORE POP POP SWAP1 POP PUSH2 0xEBE DUP2 PUSH1 0x20 ADD MLOAD PUSH1 0x40 PUSH1 0xA0 PUSH2 0x1671 JUMP JUMPDEST PUSH2 0xECF DUP3 PUSH1 0x0 ADD MLOAD PUSH1 0x80 PUSH1 0x60 PUSH2 0x1671 JUMP JUMPDEST PUSH2 0xEE0 DUP4 PUSH1 0x20 ADD MLOAD PUSH1 0xEF PUSH1 0xF PUSH2 0x1671 JUMP JUMPDEST PUSH2 0xEF1 DUP5 PUSH1 0x20 ADD MLOAD PUSH1 0xE0 PUSH1 0xF PUSH2 0x1671 JUMP JUMPDEST PUSH2 0xF02 DUP6 PUSH1 0x20 ADD MLOAD PUSH1 0xFF PUSH1 0x1 PUSH2 0x1671 JUMP JUMPDEST PUSH2 0xF13 DUP7 PUSH1 0x0 ADD MLOAD PUSH1 0xE0 PUSH1 0x20 PUSH2 0x1671 JUMP JUMPDEST TIMESTAMP GT DUP8 PUSH1 0x2 ADD PUSH1 0x0 CALLER PUSH20 0xFFFFFFFFFFFFFFFFFFFFFFFFFFFFFFFFFFFFFFFF AND PUSH20 0xFFFFFFFFFFFFFFFFFFFFFFFFFFFFFFFFFFFFFFFF AND DUP2 MSTORE PUSH1 0x20 ADD SWAP1 DUP2 MSTORE PUSH1 0x20 ADD PUSH1 0x0 KECCAK256 SLOAD SWAP9 POP SWAP9 POP SWAP9 POP SWAP9 POP SWAP9 POP SWAP9 POP SWAP9 POP POP POP SWAP2 SWAP4 SWAP6 SWAP8 SWAP1 SWAP3 SWAP5 SWAP7 POP JUMP JUMPDEST PUSH1 0x0 DUP1 PUSH1 0x0 SWAP1 SLOAD SWAP1 PUSH2 0x100 EXP SWAP1 DIV PUSH20 0xFFFFFFFFFFFFFFFFFFFFFFFFFFFFFFFFFFFFFFFF AND SWAP1 POP SWAP1 JUMP JUMPDEST PUSH1 0x60 PUSH1 0x0 DUP3 DUP5 LT PUSH2 0xFE1 JUMPI PUSH1 0x40 MLOAD PUSH32 0x8C379A000000000000000000000000000000000000000000000000000000000 DUP2 MSTORE PUSH1 0x4 ADD PUSH2 0xFD8 SWAP1 PUSH2 0x2F7F JUMP JUMPDEST PUSH1 0x40 MLOAD DUP1 SWAP2 SUB SWAP1 REVERT JUMPDEST PUSH1 0x1 DUP1 SLOAD SWAP1 POP DUP4 GT ISZERO PUSH2 0x1029 JUMPI PUSH1 0x40 MLOAD PUSH32 0x8C379A000000000000000000000000000000000000000000000000000000000 DUP2 MSTORE PUSH1 0x4 ADD PUSH2 0x1020 SWAP1 PUSH2 0x2FEB JUMP JUMPDEST PUSH1 0x40 MLOAD DUP1 SWAP2 SUB SWAP1 REVERT JUMPDEST PUSH1 0x0 DUP5 DUP5 PUSH2 0x1037 SWAP2 SWAP1 PUSH2 0x29A8 JUMP JUMPDEST PUSH8 0xFFFFFFFFFFFFFFFF DUP2 GT ISZERO PUSH2 0x1050 JUMPI PUSH2 0x104F PUSH2 0x20F1 JUMP JUMPDEST JUMPDEST PUSH1 0x40 MLOAD SWAP1 DUP1 DUP3 MSTORE DUP1 PUSH1 0x20 MUL PUSH1 0x20 ADD DUP3 ADD PUSH1 0x40 MSTORE DUP1 ISZERO PUSH2 0x1089 JUMPI DUP2 PUSH1 0x20 ADD JUMPDEST PUSH2 0x1076 PUSH2 0x1E9A JUMP JUMPDEST DUP2 MSTORE PUSH1 0x20 ADD SWAP1 PUSH1 0x1 SWAP1 SUB SWAP1 DUP2 PUSH2 0x106E JUMPI SWAP1 POP JUMPDEST POP SWAP1 POP PUSH1 0x0 DUP1 DUP7 SWAP1 POP JUMPDEST DUP6 DUP2 LT ISZERO PUSH2 0x11CC JUMPI PUSH1 0x0 PUSH1 0x1 DUP3 DUP2 SLOAD DUP2 LT PUSH2 0x10B1 JUMPI PUSH2 0x10B0 PUSH2 0x2620 JUMP JUMPDEST JUMPDEST SWAP1 PUSH1 0x0 MSTORE PUSH1 0x20 PUSH1 0x0 KECCAK256 ADD SLOAD SWAP1 POP PUSH1 0x0 PUSH1 0x3 PUSH1 0x0 DUP4 DUP2 MSTORE PUSH1 0x20 ADD SWAP1 DUP2 MSTORE PUSH1 0x20 ADD PUSH1 0x0 KECCAK256 SWAP1 POP PUSH1 0x2 PUSH1 0x0 DUP4 DUP2 MSTORE PUSH1 0x20 ADD SWAP1 DUP2 MSTORE PUSH1 0x20 ADD PUSH1 0x0 KECCAK256 PUSH1 0x0 SWAP1 SLOAD SWAP1 PUSH2 0x100 EXP SWAP1 DIV PUSH1 0xFF AND ISZERO DUP1 ISZERO PUSH2 0x1115 JUMPI POP PUSH2 0x1112 DUP2 PUSH1 0x0 ADD PUSH1 0x0 ADD SLOAD PUSH1 0xE0 PUSH1 0x20 PUSH2 0x1671 JUMP JUMPDEST TIMESTAMP GT JUMPDEST ISZERO PUSH2 0x11B7 JUMPI PUSH1 0x40 MLOAD DUP1 PUSH1 0x80 ADD PUSH1 0x40 MSTORE DUP1 DUP4 DUP2 MSTORE PUSH1 0x20 ADD PUSH2 0x113F DUP4 PUSH1 0x0 ADD PUSH1 0x1 ADD SLOAD PUSH1 0x40 PUSH1 0xA0 PUSH2 0x1671 JUMP JUMPDEST PUSH20 0xFFFFFFFFFFFFFFFFFFFFFFFFFFFFFFFFFFFFFFFF AND DUP2 MSTORE PUSH1 0x20 ADD PUSH2 0x116E DUP4 PUSH1 0x0 ADD PUSH1 0x0 ADD SLOAD PUSH1 0x80 PUSH1 0x60 PUSH2 0x1671 JUMP JUMPDEST DUP2 MSTORE PUSH1 0x20 ADD PUSH2 0x1187 DUP4 PUSH1 0x0 ADD PUSH1 0x1 ADD SLOAD PUSH1 0xFE PUSH1 0x1 PUSH2 0x1671 JUMP JUMPDEST DUP2 MSTORE POP DUP6 DUP6 DUP2 MLOAD DUP2 LT PUSH2 0x119D JUMPI PUSH2 0x119C PUSH2 0x2620 JUMP JUMPDEST JUMPDEST PUSH1 0x20 MUL PUSH1 0x20 ADD ADD DUP2 SWAP1 MSTORE POP DUP4 DUP1 PUSH2 0x11B3 SWAP1 PUSH2 0x26B5 JUMP JUMPDEST SWAP5 POP POP JUMPDEST POP POP DUP1 DUP1 PUSH2 0x11C4 SWAP1 PUSH2 0x26B5 JUMP JUMPDEST SWAP2 POP POP PUSH2 0x1093 JUMP JUMPDEST POP DUP2 DUP2 SWAP4 POP SWAP4 POP POP POP SWAP3 POP SWAP3 SWAP1 POP JUMP JUMPDEST PUSH2 0x11E4 PUSH2 0x147D JUMP JUMPDEST PUSH1 0x0 PUSH1 0x3 PUSH1 0x0 DUP4 DUP2 MSTORE PUSH1 0x20 ADD SWAP1 DUP2 MSTORE PUSH1 0x20 ADD PUSH1 0x0 KECCAK256 SWAP1 POP PUSH1 0x0 DUP2 PUSH1 0x0 ADD PUSH1 0x40 MLOAD DUP1 PUSH1 0x40 ADD PUSH1 0x40 MSTORE SWAP1 DUP2 PUSH1 0x0 DUP3 ADD SLOAD DUP2 MSTORE PUSH1 0x20 ADD PUSH1 0x1 DUP3 ADD SLOAD DUP2 MSTORE POP POP SWAP1 POP TIMESTAMP PUSH2 0x1234 DUP3 PUSH1 0x0 ADD MLOAD PUSH1 0xE0 PUSH1 0x20 PUSH2 0x1671 JUMP JUMPDEST LT PUSH2 0x1274 JUMPI PUSH1 0x40 MLOAD PUSH32 0x8C379A000000000000000000000000000000000000000000000000000000000 DUP2 MSTORE PUSH1 0x4 ADD PUSH2 0x126B SWAP1 PUSH2 0x3057 JUMP JUMPDEST PUSH1 0x40 MLOAD DUP1 SWAP2 SUB SWAP1 REVERT JUMPDEST PUSH1 0x2 PUSH1 0x0 DUP5 DUP2 MSTORE PUSH1 0x20 ADD SWAP1 DUP2 MSTORE PUSH1 0x20 ADD PUSH1 0x0 KECCAK256 PUSH1 0x0 SWAP1 SLOAD SWAP1 PUSH2 0x100 EXP SWAP1 DIV PUSH1 0xFF AND ISZERO PUSH2 0x12D5 JUMPI PUSH1 0x40 MLOAD PUSH32 0x8C379A000000000000000000000000000000000000000000000000000000000 DUP2 MSTORE PUSH1 0x4 ADD PUSH2 0x12CC SWAP1 PUSH2 0x30C3 JUMP JUMPDEST PUSH1 0x40 MLOAD DUP1 SWAP2 SUB SWAP1 REVERT JUMPDEST PUSH1 0x0 PUSH2 0x12E8 DUP3 PUSH1 0x20 ADD MLOAD PUSH1 0xFE PUSH1 0x1 PUSH2 0x1671 JUMP JUMPDEST SWAP1 POP PUSH1 0x0 PUSH2 0x12FD DUP4 PUSH1 0x0 ADD MLOAD PUSH1 0x80 PUSH1 0x60 PUSH2 0x1671 JUMP JUMPDEST SWAP1 POP PUSH1 0x0 PUSH2 0x1312 DUP5 PUSH1 0x20 ADD MLOAD PUSH1 0x40 PUSH1 0xA0 PUSH2 0x1671 JUMP JUMPDEST SWAP1 POP PUSH1 0x1 PUSH1 0x2 PUSH1 0x0 DUP9 DUP2 MSTORE PUSH1 0x20 ADD SWAP1 DUP2 MSTORE PUSH1 0x20 ADD PUSH1 0x0 KECCAK256 PUSH1 0x0 PUSH2 0x100 EXP DUP2 SLOAD DUP2 PUSH1 0xFF MUL NOT AND SWAP1 DUP4 ISZERO ISZERO MUL OR SWAP1 SSTORE POP PUSH1 0x0 DUP4 SUB PUSH2 0x139B JUMPI PUSH2 0x1350 PUSH2 0xF72 JUMP JUMPDEST PUSH20 0xFFFFFFFFFFFFFFFFFFFFFFFFFFFFFFFFFFFFFFFF AND PUSH2 0x8FC DUP4 SWAP1 DUP2 ISZERO MUL SWAP1 PUSH1 0x40 MLOAD PUSH1 0x0 PUSH1 0x40 MLOAD DUP1 DUP4 SUB DUP2 DUP6 DUP9 DUP9 CALL SWAP4 POP POP POP POP ISZERO DUP1 ISZERO PUSH2 0x1395 JUMPI RETURNDATASIZE PUSH1 0x0 DUP1 RETURNDATACOPY RETURNDATASIZE PUSH1 0x0 REVERT JUMPDEST POP PUSH2 0x13B7 JUMP JUMPDEST PUSH1 0x1 DUP4 SUB PUSH2 0x13B6 JUMPI PUSH2 0x13B5 DUP2 PUSH2 0x13AF PUSH2 0xF72 JUMP JUMPDEST DUP5 PUSH2 0x14FB JUMP JUMPDEST JUMPDEST JUMPDEST PUSH32 0x376ABA31CA2F718ED24FA28BAB1423390EC32E6423AFC7D61E74BC5A20A84339 DUP7 DUP3 DUP5 PUSH1 0x40 MLOAD PUSH2 0x13EA SWAP4 SWAP3 SWAP2 SWAP1 PUSH2 0x264F JUMP JUMPDEST PUSH1 0x40 MLOAD DUP1 SWAP2 SUB SWAP1 LOG1 POP POP POP POP POP POP JUMP JUMPDEST PUSH2 0x1402 PUSH2 0x147D JUMP JUMPDEST PUSH1 0x0 PUSH20 0xFFFFFFFFFFFFFFFFFFFFFFFFFFFFFFFFFFFFFFFF AND DUP2 PUSH20 0xFFFFFFFFFFFFFFFFFFFFFFFFFFFFFFFFFFFFFFFF AND SUB PUSH2 0x1471 JUMPI PUSH1 0x40 MLOAD PUSH32 0x8C379A000000000000000000000000000000000000000000000000000000000 DUP2 MSTORE PUSH1 0x4 ADD PUSH2 0x1468 SWAP1 PUSH2 0x3155 JUMP JUMPDEST PUSH1 0x40 MLOAD DUP1 SWAP2 SUB SWAP1 REVERT JUMPDEST PUSH2 0x147A DUP2 PUSH2 0x1786 JUMP JUMPDEST POP JUMP JUMPDEST PUSH2 0x1485 PUSH2 0x184A JUMP JUMPDEST PUSH20 0xFFFFFFFFFFFFFFFFFFFFFFFFFFFFFFFFFFFFFFFF AND PUSH2 0x14A3 PUSH2 0xF72 JUMP JUMPDEST PUSH20 0xFFFFFFFFFFFFFFFFFFFFFFFFFFFFFFFFFFFFFFFF AND EQ PUSH2 0x14F9 JUMPI PUSH1 0x40 MLOAD PUSH32 0x8C379A000000000000000000000000000000000000000000000000000000000 DUP2 MSTORE PUSH1 0x4 ADD PUSH2 0x14F0 SWAP1 PUSH2 0x31C1 JUMP JUMPDEST PUSH1 0x40 MLOAD DUP1 SWAP2 SUB SWAP1 REVERT JUMPDEST JUMP JUMPDEST PUSH2 0x1526 DUP3 DUP3 DUP6 PUSH20 0xFFFFFFFFFFFFFFFFFFFFFFFFFFFFFFFFFFFFFFFF AND PUSH2 0x1852 SWAP1 SWAP3 SWAP2 SWAP1 PUSH4 0xFFFFFFFF AND JUMP JUMPDEST POP POP POP JUMP JUMPDEST PUSH2 0x15AE DUP5 PUSH4 0x23B872DD PUSH1 0xE0 SHL DUP6 DUP6 DUP6 PUSH1 0x40 MLOAD PUSH1 0x24 ADD PUSH2 0x154C SWAP4 SWAP3 SWAP2 SWAP1 PUSH2 0x31E1 JUMP JUMPDEST PUSH1 0x40 MLOAD PUSH1 0x20 DUP2 DUP4 SUB SUB DUP2 MSTORE SWAP1 PUSH1 0x40 MSTORE SWAP1 PUSH28 0xFFFFFFFFFFFFFFFFFFFFFFFFFFFFFFFFFFFFFFFFFFFFFFFFFFFFFFFF NOT AND PUSH1 0x20 DUP3 ADD DUP1 MLOAD PUSH28 0xFFFFFFFFFFFFFFFFFFFFFFFFFFFFFFFFFFFFFFFFFFFFFFFFFFFFFFFF DUP4 DUP2 DUP4 AND OR DUP4 MSTORE POP POP POP POP PUSH2 0x18D8 JUMP JUMPDEST POP POP POP POP JUMP JUMPDEST PUSH1 0x0 DUP1 PUSH1 0x0 SWAP1 POP PUSH2 0x15C8 PUSH1 0x80 PUSH1 0x60 DUP7 PUSH2 0x19A0 JUMP JUMPDEST DUP2 OR SWAP1 POP PUSH2 0x15E4 PUSH1 0xE0 PUSH1 0x20 DUP6 TIMESTAMP PUSH2 0x15DF SWAP2 SWAP1 PUSH2 0x2EBA JUMP JUMPDEST PUSH2 0x19A0 JUMP JUMPDEST DUP2 OR SWAP1 POP DUP1 SWAP2 POP POP SWAP3 SWAP2 POP POP JUMP JUMPDEST PUSH1 0x0 DUP1 PUSH1 0x0 SWAP1 POP PUSH2 0x161C PUSH1 0x40 PUSH1 0xA0 DUP9 PUSH20 0xFFFFFFFFFFFFFFFFFFFFFFFFFFFFFFFFFFFFFFFF AND PUSH2 0x19A0 JUMP JUMPDEST DUP2 OR SWAP1 POP PUSH2 0x162E PUSH1 0xE0 PUSH1 0xF PUSH1 0x0 PUSH2 0x19A0 JUMP JUMPDEST DUP2 OR SWAP1 POP PUSH2 0x163F PUSH1 0xEF PUSH1 0xF DUP8 PUSH2 0x19A0 JUMP JUMPDEST DUP2 OR SWAP1 POP PUSH2 0x1650 PUSH1 0xFE PUSH1 0x1 DUP7 PUSH2 0x19A0 JUMP JUMPDEST DUP2 OR SWAP1 POP PUSH2 0x1661 PUSH1 0xFF PUSH1 0x1 DUP6 PUSH2 0x19A0 JUMP JUMPDEST DUP2 OR SWAP1 POP DUP1 SWAP2 POP POP SWAP5 SWAP4 POP POP POP POP JUMP JUMPDEST PUSH1 0x0 PUSH2 0x167F PUSH2 0x100 DUP6 PUSH2 0x19F7 JUMP JUMPDEST PUSH2 0x16BE JUMPI PUSH1 0x40 MLOAD PUSH32 0x8C379A000000000000000000000000000000000000000000000000000000000 DUP2 MSTORE PUSH1 0x4 ADD PUSH2 0x16B5 SWAP1 PUSH2 0x3264 JUMP JUMPDEST PUSH1 0x40 MLOAD DUP1 SWAP2 SUB SWAP1 REVERT JUMPDEST DUP4 DUP4 SHR PUSH1 0x1 DUP1 DUP5 SHL SUB AND SWAP1 POP SWAP4 SWAP3 POP POP POP JUMP JUMPDEST PUSH1 0x0 DUP1 PUSH1 0x40 MLOAD DUP1 PUSH1 0x60 ADD PUSH1 0x40 MSTORE DUP1 PUSH1 0x26 DUP2 MSTORE PUSH1 0x20 ADD PUSH2 0x37BF PUSH1 0x26 SWAP2 CODECOPY SWAP1 POP PUSH1 0x0 DUP2 DUP7 DUP7 DUP7 PUSH1 0x40 MLOAD PUSH1 0x20 ADD PUSH2 0x1708 SWAP5 SWAP4 SWAP3 SWAP2 SWAP1 PUSH2 0x32CB JUMP JUMPDEST PUSH1 0x40 MLOAD PUSH1 0x20 DUP2 DUP4 SUB SUB DUP2 MSTORE SWAP1 PUSH1 0x40 MSTORE DUP1 MLOAD SWAP1 PUSH1 0x20 ADD KECCAK256 SWAP1 POP PUSH1 0x0 PUSH2 0x172C DUP3 DUP11 PUSH2 0x1A0D JUMP JUMPDEST SWAP1 POP DUP8 PUSH20 0xFFFFFFFFFFFFFFFFFFFFFFFFFFFFFFFFFFFFFFFF AND DUP2 PUSH20 0xFFFFFFFFFFFFFFFFFFFFFFFFFFFFFFFFFFFFFFFF AND EQ SWAP4 POP POP POP POP SWAP6 SWAP5 POP POP POP POP POP JUMP JUMPDEST PUSH1 0x0 DUP2 DUP5 SHL PUSH1 0x1 DUP1 DUP6 SHL SUB DUP6 SHL NOT DUP7 AND OR SWAP1 POP SWAP5 SWAP4 POP POP POP POP JUMP JUMPDEST PUSH1 0x0 DUP1 PUSH1 0x0 SWAP1 SLOAD SWAP1 PUSH2 0x100 EXP SWAP1 DIV PUSH20 0xFFFFFFFFFFFFFFFFFFFFFFFFFFFFFFFFFFFFFFFF AND SWAP1 POP DUP2 PUSH1 0x0 DUP1 PUSH2 0x100 EXP DUP2 SLOAD DUP2 PUSH20 0xFFFFFFFFFFFFFFFFFFFFFFFFFFFFFFFFFFFFFFFF MUL NOT AND SWAP1 DUP4 PUSH20 0xFFFFFFFFFFFFFFFFFFFFFFFFFFFFFFFFFFFFFFFF AND MUL OR SWAP1 SSTORE POP DUP2 PUSH20 0xFFFFFFFFFFFFFFFFFFFFFFFFFFFFFFFFFFFFFFFF AND DUP2 PUSH20 0xFFFFFFFFFFFFFFFFFFFFFFFFFFFFFFFFFFFFFFFF AND PUSH32 0x8BE0079C531659141344CD1FD0A4F28419497F9722A3DAAFE3B4186F6B6457E0 PUSH1 0x40 MLOAD PUSH1 0x40 MLOAD DUP1 SWAP2 SUB SWAP1 LOG3 POP POP JUMP JUMPDEST PUSH1 0x0 CALLER SWAP1 POP SWAP1 JUMP JUMPDEST PUSH2 0x18D3 DUP4 PUSH4 0xA9059CBB PUSH1 0xE0 SHL DUP5 DUP5 PUSH1 0x40 MLOAD PUSH1 0x24 ADD PUSH2 0x1871 SWAP3 SWAP2 SWAP1 PUSH2 0x3315 JUMP JUMPDEST PUSH1 0x40 MLOAD PUSH1 0x20 DUP2 DUP4 SUB SUB DUP2 MSTORE SWAP1 PUSH1 0x40 MSTORE SWAP1 PUSH28 0xFFFFFFFFFFFFFFFFFFFFFFFFFFFFFFFFFFFFFFFFFFFFFFFFFFFFFFFF NOT AND PUSH1 0x20 DUP3 ADD DUP1 MLOAD PUSH28 0xFFFFFFFFFFFFFFFFFFFFFFFFFFFFFFFFFFFFFFFFFFFFFFFFFFFFFFFF DUP4 DUP2 DUP4 AND OR DUP4 MSTORE POP POP POP POP PUSH2 0x18D8 JUMP JUMPDEST POP POP POP JUMP JUMPDEST PUSH1 0x0 PUSH2 0x193A DUP3 PUSH1 0x40 MLOAD DUP1 PUSH1 0x40 ADD PUSH1 0x40 MSTORE DUP1 PUSH1 0x20 DUP2 MSTORE PUSH1 0x20 ADD PUSH32 0x5361666545524332303A206C6F772D6C6576656C2063616C6C206661696C6564 DUP2 MSTORE POP DUP6 PUSH20 0xFFFFFFFFFFFFFFFFFFFFFFFFFFFFFFFFFFFFFFFF AND PUSH2 0x1A34 SWAP1 SWAP3 SWAP2 SWAP1 PUSH4 0xFFFFFFFF AND JUMP JUMPDEST SWAP1 POP PUSH1 0x0 DUP2 MLOAD EQ DUP1 PUSH2 0x195C JUMPI POP DUP1 DUP1 PUSH1 0x20 ADD SWAP1 MLOAD DUP2 ADD SWAP1 PUSH2 0x195B SWAP2 SWAP1 PUSH2 0x3353 JUMP JUMPDEST JUMPDEST PUSH2 0x199B JUMPI PUSH1 0x40 MLOAD PUSH32 0x8C379A000000000000000000000000000000000000000000000000000000000 DUP2 MSTORE PUSH1 0x4 ADD PUSH2 0x1992 SWAP1 PUSH2 0x33F2 JUMP JUMPDEST PUSH1 0x40 MLOAD DUP1 SWAP2 SUB SWAP1 REVERT JUMPDEST POP POP POP JUMP JUMPDEST PUSH1 0x0 PUSH2 0x19AC DUP4 DUP4 PUSH2 0x19F7 JUMP JUMPDEST PUSH2 0x19EB JUMPI PUSH1 0x40 MLOAD PUSH32 0x8C379A000000000000000000000000000000000000000000000000000000000 DUP2 MSTORE PUSH1 0x4 ADD PUSH2 0x19E2 SWAP1 PUSH2 0x345E JUMP JUMPDEST PUSH1 0x40 MLOAD DUP1 SWAP2 SUB SWAP1 REVERT JUMPDEST DUP2 DUP5 SHL SWAP1 POP SWAP4 SWAP3 POP POP POP JUMP JUMPDEST PUSH1 0x0 DUP2 PUSH1 0x1 DUP5 SHL GT PUSH2 0x100 DUP5 EQ OR SWAP1 POP SWAP3 SWAP2 POP POP JUMP JUMPDEST PUSH1 0x0 DUP1 PUSH1 0x0 PUSH2 0x1A1C DUP6 DUP6 PUSH2 0x1A4C JUMP JUMPDEST SWAP2 POP SWAP2 POP PUSH2 0x1A29 DUP2 PUSH2 0x1A9D JUMP JUMPDEST DUP2 SWAP3 POP POP POP SWAP3 SWAP2 POP POP JUMP JUMPDEST PUSH1 0x60 PUSH2 0x1A43 DUP5 DUP5 PUSH1 0x0 DUP6 PUSH2 0x1C03 JUMP JUMPDEST SWAP1 POP SWAP4 SWAP3 POP POP POP JUMP JUMPDEST PUSH1 0x0 DUP1 PUSH1 0x41 DUP4 MLOAD SUB PUSH2 0x1A8D JUMPI PUSH1 0x0 DUP1 PUSH1 0x0 PUSH1 0x20 DUP7 ADD MLOAD SWAP3 POP PUSH1 0x40 DUP7 ADD MLOAD SWAP2 POP PUSH1 0x60 DUP7 ADD MLOAD PUSH1 0x0 BYTE SWAP1 POP PUSH2 0x1A81 DUP8 DUP3 DUP6 DUP6 PUSH2 0x1CD0 JUMP JUMPDEST SWAP5 POP SWAP5 POP POP POP POP PUSH2 0x1A96 JUMP JUMPDEST PUSH1 0x0 PUSH1 0x2 SWAP2 POP SWAP2 POP JUMPDEST SWAP3 POP SWAP3 SWAP1 POP JUMP JUMPDEST PUSH1 0x0 PUSH1 0x4 DUP2 GT ISZERO PUSH2 0x1AB1 JUMPI PUSH2 0x1AB0 PUSH2 0x347E JUMP JUMPDEST JUMPDEST DUP2 PUSH1 0x4 DUP2 GT ISZERO PUSH2 0x1AC4 JUMPI PUSH2 0x1AC3 PUSH2 0x347E JUMP JUMPDEST JUMPDEST SUB ISZERO PUSH2 0x1C00 JUMPI PUSH1 0x1 PUSH1 0x4 DUP2 GT ISZERO PUSH2 0x1ADE JUMPI PUSH2 0x1ADD PUSH2 0x347E JUMP JUMPDEST JUMPDEST DUP2 PUSH1 0x4 DUP2 GT ISZERO PUSH2 0x1AF1 JUMPI PUSH2 0x1AF0 PUSH2 0x347E JUMP JUMPDEST JUMPDEST SUB PUSH2 0x1B31 JUMPI PUSH1 0x40 MLOAD PUSH32 0x8C379A000000000000000000000000000000000000000000000000000000000 DUP2 MSTORE PUSH1 0x4 ADD PUSH2 0x1B28 SWAP1 PUSH2 0x34F9 JUMP JUMPDEST PUSH1 0x40 MLOAD DUP1 SWAP2 SUB SWAP1 REVERT JUMPDEST PUSH1 0x2 PUSH1 0x4 DUP2 GT ISZERO PUSH2 0x1B45 JUMPI PUSH2 0x1B44 PUSH2 0x347E JUMP JUMPDEST JUMPDEST DUP2 PUSH1 0x4 DUP2 GT ISZERO PUSH2 0x1B58 JUMPI PUSH2 0x1B57 PUSH2 0x347E JUMP JUMPDEST JUMPDEST SUB PUSH2 0x1B98 JUMPI PUSH1 0x40 MLOAD PUSH32 0x8C379A000000000000000000000000000000000000000000000000000000000 DUP2 MSTORE PUSH1 0x4 ADD PUSH2 0x1B8F SWAP1 PUSH2 0x3565 JUMP JUMPDEST PUSH1 0x40 MLOAD DUP1 SWAP2 SUB SWAP1 REVERT JUMPDEST PUSH1 0x3 PUSH1 0x4 DUP2 GT ISZERO PUSH2 0x1BAC JUMPI PUSH2 0x1BAB PUSH2 0x347E JUMP JUMPDEST JUMPDEST DUP2 PUSH1 0x4 DUP2 GT ISZERO PUSH2 0x1BBF JUMPI PUSH2 0x1BBE PUSH2 0x347E JUMP JUMPDEST JUMPDEST SUB PUSH2 0x1BFF JUMPI PUSH1 0x40 MLOAD PUSH32 0x8C379A000000000000000000000000000000000000000000000000000000000 DUP2 MSTORE PUSH1 0x4 ADD PUSH2 0x1BF6 SWAP1 PUSH2 0x35F7 JUMP JUMPDEST PUSH1 0x40 MLOAD DUP1 SWAP2 SUB SWAP1 REVERT JUMPDEST JUMPDEST POP JUMP JUMPDEST PUSH1 0x60 DUP3 SELFBALANCE LT ISZERO PUSH2 0x1C48 JUMPI PUSH1 0x40 MLOAD PUSH32 0x8C379A000000000000000000000000000000000000000000000000000000000 DUP2 MSTORE PUSH1 0x4 ADD PUSH2 0x1C3F SWAP1 PUSH2 0x3689 JUMP JUMPDEST PUSH1 0x40 MLOAD DUP1 SWAP2 SUB SWAP1 REVERT JUMPDEST PUSH1 0x0 DUP1 DUP7 PUSH20 0xFFFFFFFFFFFFFFFFFFFFFFFFFFFFFFFFFFFFFFFF AND DUP6 DUP8 PUSH1 0x40 MLOAD PUSH2 0x1C71 SWAP2 SWAP1 PUSH2 0x36A9 JUMP JUMPDEST PUSH1 0x0 PUSH1 0x40 MLOAD DUP1 DUP4 SUB DUP2 DUP6 DUP8 GAS CALL SWAP3 POP POP POP RETURNDATASIZE DUP1 PUSH1 0x0 DUP2 EQ PUSH2 0x1CAE JUMPI PUSH1 0x40 MLOAD SWAP2 POP PUSH1 0x1F NOT PUSH1 0x3F RETURNDATASIZE ADD AND DUP3 ADD PUSH1 0x40 MSTORE RETURNDATASIZE DUP3 MSTORE RETURNDATASIZE PUSH1 0x0 PUSH1 0x20 DUP5 ADD RETURNDATACOPY PUSH2 0x1CB3 JUMP JUMPDEST PUSH1 0x60 SWAP2 POP JUMPDEST POP SWAP2 POP SWAP2 POP PUSH2 0x1CC4 DUP8 DUP4 DUP4 DUP8 PUSH2 0x1DB2 JUMP JUMPDEST SWAP3 POP POP POP SWAP5 SWAP4 POP POP POP POP JUMP JUMPDEST PUSH1 0x0 DUP1 PUSH32 0x7FFFFFFFFFFFFFFFFFFFFFFFFFFFFFFF5D576E7357A4501DDFE92F46681B20A0 DUP4 PUSH1 0x0 SHR GT ISZERO PUSH2 0x1D0B JUMPI PUSH1 0x0 PUSH1 0x3 SWAP2 POP SWAP2 POP PUSH2 0x1DA9 JUMP JUMPDEST PUSH1 0x0 PUSH1 0x1 DUP8 DUP8 DUP8 DUP8 PUSH1 0x40 MLOAD PUSH1 0x0 DUP2 MSTORE PUSH1 0x20 ADD PUSH1 0x40 MSTORE PUSH1 0x40 MLOAD PUSH2 0x1D30 SWAP5 SWAP4 SWAP3 SWAP2 SWAP1 PUSH2 0x36EB JUMP JUMPDEST PUSH1 0x20 PUSH1 0x40 MLOAD PUSH1 0x20 DUP2 SUB SWAP1 DUP1 DUP5 SUB SWAP1 DUP6 GAS STATICCALL ISZERO DUP1 ISZERO PUSH2 0x1D52 JUMPI RETURNDATASIZE PUSH1 0x0 DUP1 RETURNDATACOPY RETURNDATASIZE PUSH1 0x0 REVERT JUMPDEST POP POP POP PUSH1 0x20 PUSH1 0x40 MLOAD SUB MLOAD SWAP1 POP PUSH1 0x0 PUSH20 0xFFFFFFFFFFFFFFFFFFFFFFFFFFFFFFFFFFFFFFFF AND DUP2 PUSH20 0xFFFFFFFFFFFFFFFFFFFFFFFFFFFFFFFFFFFFFFFF AND SUB PUSH2 0x1DA0 JUMPI PUSH1 0x0 PUSH1 0x1 SWAP3 POP SWAP3 POP POP PUSH2 0x1DA9 JUMP JUMPDEST DUP1 PUSH1 0x0 SWAP3 POP SWAP3 POP POP JUMPDEST SWAP5 POP SWAP5 SWAP3 POP POP POP JUMP JUMPDEST PUSH1 0x60 DUP4 ISZERO PUSH2 0x1E14 JUMPI PUSH1 0x0 DUP4 MLOAD SUB PUSH2 0x1E0C JUMPI PUSH2 0x1DCC DUP6 PUSH2 0x1E27 JUMP JUMPDEST PUSH2 0x1E0B JUMPI PUSH1 0x40 MLOAD PUSH32 0x8C379A000000000000000000000000000000000000000000000000000000000 DUP2 MSTORE PUSH1 0x4 ADD PUSH2 0x1E02 SWAP1 PUSH2 0x377C JUMP JUMPDEST PUSH1 0x40 MLOAD DUP1 SWAP2 SUB SWAP1 REVERT JUMPDEST JUMPDEST DUP3 SWAP1 POP PUSH2 0x1E1F JUMP JUMPDEST PUSH2 0x1E1E DUP4 DUP4 PUSH2 0x1E4A JUMP JUMPDEST JUMPDEST SWAP5 SWAP4 POP POP POP POP JUMP JUMPDEST PUSH1 0x0 DUP1 DUP3 PUSH20 0xFFFFFFFFFFFFFFFFFFFFFFFFFFFFFFFFFFFFFFFF AND EXTCODESIZE GT SWAP1 POP SWAP2 SWAP1 POP JUMP JUMPDEST PUSH1 0x0 DUP3 MLOAD GT ISZERO PUSH2 0x1E5D JUMPI DUP2 MLOAD DUP1 DUP4 PUSH1 0x20 ADD REVERT JUMPDEST DUP1 PUSH1 0x40 MLOAD PUSH32 0x8C379A000000000000000000000000000000000000000000000000000000000 DUP2 MSTORE PUSH1 0x4 ADD PUSH2 0x1E91 SWAP2 SWAP1 PUSH2 0x379C JUMP JUMPDEST PUSH1 0x40 MLOAD DUP1 SWAP2 SUB SWAP1 REVERT JUMPDEST PUSH1 0x40 MLOAD DUP1 PUSH1 0x80 ADD PUSH1 0x40 MSTORE DUP1 PUSH1 0x0 DUP2 MSTORE PUSH1 0x20 ADD PUSH1 0x0 PUSH20 0xFFFFFFFFFFFFFFFFFFFFFFFFFFFFFFFFFFFFFFFF AND DUP2 MSTORE PUSH1 0x20 ADD PUSH1 0x0 DUP2 MSTORE PUSH1 0x20 ADD PUSH1 0x0 DUP2 MSTORE POP SWAP1 JUMP JUMPDEST PUSH1 0x0 PUSH1 0x40 MLOAD SWAP1 POP SWAP1 JUMP JUMPDEST PUSH1 0x0 DUP1 REVERT JUMPDEST PUSH1 0x0 DUP1 REVERT JUMPDEST PUSH1 0x0 PUSH20 0xFFFFFFFFFFFFFFFFFFFFFFFFFFFFFFFFFFFFFFFF DUP3 AND SWAP1 POP SWAP2 SWAP1 POP JUMP JUMPDEST PUSH1 0x0 PUSH2 0x1F17 DUP3 PUSH2 0x1EEC JUMP JUMPDEST SWAP1 POP SWAP2 SWAP1 POP JUMP JUMPDEST PUSH2 0x1F27 DUP2 PUSH2 0x1F0C JUMP JUMPDEST DUP2 EQ PUSH2 0x1F32 JUMPI PUSH1 0x0 DUP1 REVERT JUMPDEST POP JUMP JUMPDEST PUSH1 0x0 DUP2 CALLDATALOAD SWAP1 POP PUSH2 0x1F44 DUP2 PUSH2 0x1F1E JUMP JUMPDEST SWAP3 SWAP2 POP POP JUMP JUMPDEST PUSH1 0x0 PUSH1 0x20 DUP3 DUP5 SUB SLT ISZERO PUSH2 0x1F60 JUMPI PUSH2 0x1F5F PUSH2 0x1EE2 JUMP JUMPDEST JUMPDEST PUSH1 0x0 PUSH2 0x1F6E DUP5 DUP3 DUP6 ADD PUSH2 0x1F35 JUMP JUMPDEST SWAP2 POP POP SWAP3 SWAP2 POP POP JUMP JUMPDEST PUSH1 0x0 DUP2 SWAP1 POP SWAP2 SWAP1 POP JUMP JUMPDEST PUSH2 0x1F8A DUP2 PUSH2 0x1F77 JUMP JUMPDEST DUP2 EQ PUSH2 0x1F95 JUMPI PUSH1 0x0 DUP1 REVERT JUMPDEST POP JUMP JUMPDEST PUSH1 0x0 DUP2 CALLDATALOAD SWAP1 POP PUSH2 0x1FA7 DUP2 PUSH2 0x1F81 JUMP JUMPDEST SWAP3 SWAP2 POP POP JUMP JUMPDEST PUSH1 0x0 DUP1 PUSH1 0x40 DUP4 DUP6 SUB SLT ISZERO PUSH2 0x1FC4 JUMPI PUSH2 0x1FC3 PUSH2 0x1EE2 JUMP JUMPDEST JUMPDEST PUSH1 0x0 PUSH2 0x1FD2 DUP6 DUP3 DUP7 ADD PUSH2 0x1F98 JUMP JUMPDEST SWAP3 POP POP PUSH1 0x20 PUSH2 0x1FE3 DUP6 DUP3 DUP7 ADD PUSH2 0x1F98 JUMP JUMPDEST SWAP2 POP POP SWAP3 POP SWAP3 SWAP1 POP JUMP JUMPDEST PUSH1 0x0 PUSH1 0x20 DUP3 DUP5 SUB SLT ISZERO PUSH2 0x2003 JUMPI PUSH2 0x2002 PUSH2 0x1EE2 JUMP JUMPDEST JUMPDEST PUSH1 0x0 PUSH2 0x2011 DUP5 DUP3 DUP6 ADD PUSH2 0x1F98 JUMP JUMPDEST SWAP2 POP POP SWAP3 SWAP2 POP POP JUMP JUMPDEST PUSH2 0x2023 DUP2 PUSH2 0x1F77 JUMP JUMPDEST DUP3 MSTORE POP POP JUMP JUMPDEST PUSH1 0x40 DUP3 ADD PUSH1 0x0 DUP3 ADD MLOAD PUSH2 0x203F PUSH1 0x0 DUP6 ADD DUP3 PUSH2 0x201A JUMP JUMPDEST POP PUSH1 0x20 DUP3 ADD MLOAD PUSH2 0x2052 PUSH1 0x20 DUP6 ADD DUP3 PUSH2 0x201A JUMP JUMPDEST POP POP POP POP JUMP JUMPDEST PUSH2 0x2061 DUP2 PUSH2 0x1F0C JUMP JUMPDEST DUP3 MSTORE POP POP JUMP JUMPDEST PUSH1 0x0 PUSH1 0x80 DUP3 ADD SWAP1 POP PUSH2 0x207C PUSH1 0x0 DUP4 ADD DUP7 PUSH2 0x2029 JUMP JUMPDEST PUSH2 0x2089 PUSH1 0x40 DUP4 ADD DUP6 PUSH2 0x2058 JUMP JUMPDEST PUSH2 0x2096 PUSH1 0x60 DUP4 ADD DUP5 PUSH2 0x2058 JUMP JUMPDEST SWAP5 SWAP4 POP POP POP POP JUMP JUMPDEST PUSH1 0x0 DUP2 ISZERO ISZERO SWAP1 POP SWAP2 SWAP1 POP JUMP JUMPDEST PUSH2 0x20B3 DUP2 PUSH2 0x209E JUMP JUMPDEST DUP2 EQ PUSH2 0x20BE JUMPI PUSH1 0x0 DUP1 REVERT JUMPDEST POP JUMP JUMPDEST PUSH1 0x0 DUP2 CALLDATALOAD SWAP1 POP PUSH2 0x20D0 DUP2 PUSH2 0x20AA JUMP JUMPDEST SWAP3 SWAP2 POP POP JUMP JUMPDEST PUSH1 0x0 DUP1 REVERT JUMPDEST PUSH1 0x0 DUP1 REVERT JUMPDEST PUSH1 0x0 PUSH1 0x1F NOT PUSH1 0x1F DUP4 ADD AND SWAP1 POP SWAP2 SWAP1 POP JUMP JUMPDEST PUSH32 0x4E487B7100000000000000000000000000000000000000000000000000000000 PUSH1 0x0 MSTORE PUSH1 0x41 PUSH1 0x4 MSTORE PUSH1 0x24 PUSH1 0x0 REVERT JUMPDEST PUSH2 0x2129 DUP3 PUSH2 0x20E0 JUMP JUMPDEST DUP2 ADD DUP2 DUP2 LT PUSH8 0xFFFFFFFFFFFFFFFF DUP3 GT OR ISZERO PUSH2 0x2148 JUMPI PUSH2 0x2147 PUSH2 0x20F1 JUMP JUMPDEST JUMPDEST DUP1 PUSH1 0x40 MSTORE POP POP POP JUMP JUMPDEST PUSH1 0x0 PUSH2 0x215B PUSH2 0x1ED8 JUMP JUMPDEST SWAP1 POP PUSH2 0x2167 DUP3 DUP3 PUSH2 0x2120 JUMP JUMPDEST SWAP2 SWAP1 POP JUMP JUMPDEST PUSH1 0x0 PUSH8 0xFFFFFFFFFFFFFFFF DUP3 GT ISZERO PUSH2 0x2187 JUMPI PUSH2 0x2186 PUSH2 0x20F1 JUMP JUMPDEST JUMPDEST PUSH2 0x2190 DUP3 PUSH2 0x20E0 JUMP JUMPDEST SWAP1 POP PUSH1 0x20 DUP2 ADD SWAP1 POP SWAP2 SWAP1 POP JUMP JUMPDEST DUP3 DUP2 DUP4 CALLDATACOPY PUSH1 0x0 DUP4 DUP4 ADD MSTORE POP POP POP JUMP JUMPDEST PUSH1 0x0 PUSH2 0x21BF PUSH2 0x21BA DUP5 PUSH2 0x216C JUMP JUMPDEST PUSH2 0x2151 JUMP JUMPDEST SWAP1 POP DUP3 DUP2 MSTORE PUSH1 0x20 DUP2 ADD DUP5 DUP5 DUP5 ADD GT ISZERO PUSH2 0x21DB JUMPI PUSH2 0x21DA PUSH2 0x20DB JUMP JUMPDEST JUMPDEST PUSH2 0x21E6 DUP5 DUP3 DUP6 PUSH2 0x219D JUMP JUMPDEST POP SWAP4 SWAP3 POP POP POP JUMP JUMPDEST PUSH1 0x0 DUP3 PUSH1 0x1F DUP4 ADD SLT PUSH2 0x2203 JUMPI PUSH2 0x2202 PUSH2 0x20D6 JUMP JUMPDEST JUMPDEST DUP2 CALLDATALOAD PUSH2 0x2213 DUP5 DUP3 PUSH1 0x20 DUP7 ADD PUSH2 0x21AC JUMP JUMPDEST SWAP2 POP POP SWAP3 SWAP2 POP POP JUMP JUMPDEST PUSH1 0x0 DUP1 PUSH1 0x0 DUP1 PUSH1 0x0 DUP1 PUSH1 0x0 DUP1 PUSH2 0x100 DUP10 DUP12 SUB SLT ISZERO PUSH2 0x223D JUMPI PUSH2 0x223C PUSH2 0x1EE2 JUMP JUMPDEST JUMPDEST PUSH1 0x0 PUSH2 0x224B DUP12 DUP3 DUP13 ADD PUSH2 0x1F98 JUMP JUMPDEST SWAP9 POP POP PUSH1 0x20 PUSH2 0x225C DUP12 DUP3 DUP13 ADD PUSH2 0x20C1 JUMP JUMPDEST SWAP8 POP POP PUSH1 0x40 PUSH2 0x226D DUP12 DUP3 DUP13 ADD PUSH2 0x1F98 JUMP JUMPDEST SWAP7 POP POP PUSH1 0x60 DUP10 ADD CALLDATALOAD PUSH8 0xFFFFFFFFFFFFFFFF DUP2 GT ISZERO PUSH2 0x228E JUMPI PUSH2 0x228D PUSH2 0x1EE7 JUMP JUMPDEST JUMPDEST PUSH2 0x229A DUP12 DUP3 DUP13 ADD PUSH2 0x21EE JUMP JUMPDEST SWAP6 POP POP PUSH1 0x80 DUP10 ADD CALLDATALOAD PUSH8 0xFFFFFFFFFFFFFFFF DUP2 GT ISZERO PUSH2 0x22BB JUMPI PUSH2 0x22BA PUSH2 0x1EE7 JUMP JUMPDEST JUMPDEST PUSH2 0x22C7 DUP12 DUP3 DUP13 ADD PUSH2 0x21EE JUMP JUMPDEST SWAP5 POP POP PUSH1 0xA0 PUSH2 0x22D8 DUP12 DUP3 DUP13 ADD PUSH2 0x1F98 JUMP JUMPDEST SWAP4 POP POP PUSH1 0xC0 PUSH2 0x22E9 DUP12 DUP3 DUP13 ADD PUSH2 0x1F35 JUMP JUMPDEST SWAP3 POP POP PUSH1 0xE0 PUSH2 0x22FA DUP12 DUP3 DUP13 ADD PUSH2 0x1F98 JUMP JUMPDEST SWAP2 POP POP SWAP3 SWAP6 SWAP9 POP SWAP3 SWAP6 SWAP9 SWAP1 SWAP4 SWAP7 POP JUMP JUMPDEST PUSH2 0x2313 DUP2 PUSH2 0x1F77 JUMP JUMPDEST DUP3 MSTORE POP POP JUMP JUMPDEST PUSH1 0x0 PUSH1 0x20 DUP3 ADD SWAP1 POP PUSH2 0x232E PUSH1 0x0 DUP4 ADD DUP5 PUSH2 0x230A JUMP JUMPDEST SWAP3 SWAP2 POP POP JUMP JUMPDEST PUSH1 0x0 PUSH8 0xFFFFFFFFFFFFFFFF DUP3 GT ISZERO PUSH2 0x234F JUMPI PUSH2 0x234E PUSH2 0x20F1 JUMP JUMPDEST JUMPDEST PUSH2 0x2358 DUP3 PUSH2 0x20E0 JUMP JUMPDEST SWAP1 POP PUSH1 0x20 DUP2 ADD SWAP1 POP SWAP2 SWAP1 POP JUMP JUMPDEST PUSH1 0x0 PUSH2 0x2378 PUSH2 0x2373 DUP5 PUSH2 0x2334 JUMP JUMPDEST PUSH2 0x2151 JUMP JUMPDEST SWAP1 POP DUP3 DUP2 MSTORE PUSH1 0x20 DUP2 ADD DUP5 DUP5 DUP5 ADD GT ISZERO PUSH2 0x2394 JUMPI PUSH2 0x2393 PUSH2 0x20DB JUMP JUMPDEST JUMPDEST PUSH2 0x239F DUP5 DUP3 DUP6 PUSH2 0x219D JUMP JUMPDEST POP SWAP4 SWAP3 POP POP POP JUMP JUMPDEST PUSH1 0x0 DUP3 PUSH1 0x1F DUP4 ADD SLT PUSH2 0x23BC JUMPI PUSH2 0x23BB PUSH2 0x20D6 JUMP JUMPDEST JUMPDEST DUP2 CALLDATALOAD PUSH2 0x23CC DUP5 DUP3 PUSH1 0x20 DUP7 ADD PUSH2 0x2365 JUMP JUMPDEST SWAP2 POP POP SWAP3 SWAP2 POP POP JUMP JUMPDEST PUSH1 0x0 DUP1 PUSH1 0x0 PUSH1 0x60 DUP5 DUP7 SUB SLT ISZERO PUSH2 0x23EE JUMPI PUSH2 0x23ED PUSH2 0x1EE2 JUMP JUMPDEST JUMPDEST PUSH1 0x0 PUSH2 0x23FC DUP7 DUP3 DUP8 ADD PUSH2 0x1F98 JUMP JUMPDEST SWAP4 POP POP PUSH1 0x20 PUSH2 0x240D DUP7 DUP3 DUP8 ADD PUSH2 0x1F98 JUMP JUMPDEST SWAP3 POP POP PUSH1 0x40 DUP5 ADD CALLDATALOAD PUSH8 0xFFFFFFFFFFFFFFFF DUP2 GT ISZERO PUSH2 0x242E JUMPI PUSH2 0x242D PUSH2 0x1EE7 JUMP JUMPDEST JUMPDEST PUSH2 0x243A DUP7 DUP3 DUP8 ADD PUSH2 0x23A7 JUMP JUMPDEST SWAP2 POP POP SWAP3 POP SWAP3 POP SWAP3 JUMP JUMPDEST PUSH2 0x244D DUP2 PUSH2 0x209E JUMP JUMPDEST DUP3 MSTORE POP POP JUMP JUMPDEST PUSH1 0x0 PUSH1 0xE0 DUP3 ADD SWAP1 POP PUSH2 0x2468 PUSH1 0x0 DUP4 ADD DUP11 PUSH2 0x2058 JUMP JUMPDEST PUSH2 0x2475 PUSH1 0x20 DUP4 ADD DUP10 PUSH2 0x230A JUMP JUMPDEST PUSH2 0x2482 PUSH1 0x40 DUP4 ADD DUP9 PUSH2 0x230A JUMP JUMPDEST PUSH2 0x248F PUSH1 0x60 DUP4 ADD DUP8 PUSH2 0x230A JUMP JUMPDEST PUSH2 0x249C PUSH1 0x80 DUP4 ADD DUP7 PUSH2 0x230A JUMP JUMPDEST PUSH2 0x24A9 PUSH1 0xA0 DUP4 ADD DUP6 PUSH2 0x2444 JUMP JUMPDEST PUSH2 0x24B6 PUSH1 0xC0 DUP4 ADD DUP5 PUSH2 0x230A JUMP JUMPDEST SWAP9 SWAP8 POP POP POP POP POP POP POP POP JUMP JUMPDEST PUSH1 0x0 PUSH1 0x20 DUP3 ADD SWAP1 POP PUSH2 0x24D7 PUSH1 0x0 DUP4 ADD DUP5 PUSH2 0x2058 JUMP JUMPDEST SWAP3 SWAP2 POP POP JUMP JUMPDEST PUSH1 0x0 DUP2 MLOAD SWAP1 POP SWAP2 SWAP1 POP JUMP JUMPDEST PUSH1 0x0 DUP3 DUP3 MSTORE PUSH1 0x20 DUP3 ADD SWAP1 POP SWAP3 SWAP2 POP POP JUMP JUMPDEST PUSH1 0x0 DUP2 SWAP1 POP PUSH1 0x20 DUP3 ADD SWAP1 POP SWAP2 SWAP1 POP JUMP JUMPDEST PUSH2 0x2512 DUP2 PUSH2 0x1F0C JUMP JUMPDEST DUP3 MSTORE POP POP JUMP JUMPDEST PUSH1 0x80 DUP3 ADD PUSH1 0x0 DUP3 ADD MLOAD PUSH2 0x252E PUSH1 0x0 DUP6 ADD DUP3 PUSH2 0x201A JUMP JUMPDEST POP PUSH1 0x20 DUP3 ADD MLOAD PUSH2 0x2541 PUSH1 0x20 DUP6 ADD DUP3 PUSH2 0x2509 JUMP JUMPDEST POP PUSH1 0x40 DUP3 ADD MLOAD PUSH2 0x2554 PUSH1 0x40 DUP6 ADD DUP3 PUSH2 0x201A JUMP JUMPDEST POP PUSH1 0x60 DUP3 ADD MLOAD PUSH2 0x2567 PUSH1 0x60 DUP6 ADD DUP3 PUSH2 0x201A JUMP JUMPDEST POP POP POP POP JUMP JUMPDEST PUSH1 0x0 PUSH2 0x2579 DUP4 DUP4 PUSH2 0x2518 JUMP JUMPDEST PUSH1 0x80 DUP4 ADD SWAP1 POP SWAP3 SWAP2 POP POP JUMP JUMPDEST PUSH1 0x0 PUSH1 0x20 DUP3 ADD SWAP1 POP SWAP2 SWAP1 POP JUMP JUMPDEST PUSH1 0x0 PUSH2 0x259D DUP3 PUSH2 0x24DD JUMP JUMPDEST PUSH2 0x25A7 DUP2 DUP6 PUSH2 0x24E8 JUMP JUMPDEST SWAP4 POP PUSH2 0x25B2 DUP4 PUSH2 0x24F9 JUMP JUMPDEST DUP1 PUSH1 0x0 JUMPDEST DUP4 DUP2 LT ISZERO PUSH2 0x25E3 JUMPI DUP2 MLOAD PUSH2 0x25CA DUP9 DUP3 PUSH2 0x256D JUMP JUMPDEST SWAP8 POP PUSH2 0x25D5 DUP4 PUSH2 0x2585 JUMP JUMPDEST SWAP3 POP POP PUSH1 0x1 DUP2 ADD SWAP1 POP PUSH2 0x25B6 JUMP JUMPDEST POP DUP6 SWAP4 POP POP POP POP SWAP3 SWAP2 POP POP JUMP JUMPDEST PUSH1 0x0 PUSH1 0x40 DUP3 ADD SWAP1 POP DUP2 DUP2 SUB PUSH1 0x0 DUP4 ADD MSTORE PUSH2 0x260A DUP2 DUP6 PUSH2 0x2592 JUMP JUMPDEST SWAP1 POP PUSH2 0x2619 PUSH1 0x20 DUP4 ADD DUP5 PUSH2 0x230A JUMP JUMPDEST SWAP4 SWAP3 POP POP POP JUMP JUMPDEST PUSH32 0x4E487B7100000000000000000000000000000000000000000000000000000000 PUSH1 0x0 MSTORE PUSH1 0x32 PUSH1 0x4 MSTORE PUSH1 0x24 PUSH1 0x0 REVERT JUMPDEST PUSH1 0x0 PUSH1 0x60 DUP3 ADD SWAP1 POP PUSH2 0x2664 PUSH1 0x0 DUP4 ADD DUP7 PUSH2 0x230A JUMP JUMPDEST PUSH2 0x2671 PUSH1 0x20 DUP4 ADD DUP6 PUSH2 0x2058 JUMP JUMPDEST PUSH2 0x267E PUSH1 0x40 DUP4 ADD DUP5 PUSH2 0x230A JUMP JUMPDEST SWAP5 SWAP4 POP POP POP POP JUMP JUMPDEST PUSH32 0x4E487B7100000000000000000000000000000000000000000000000000000000 PUSH1 0x0 MSTORE PUSH1 0x11 PUSH1 0x4 MSTORE PUSH1 0x24 PUSH1 0x0 REVERT JUMPDEST PUSH1 0x0 PUSH2 0x26C0 DUP3 PUSH2 0x1F77 JUMP JUMPDEST SWAP2 POP PUSH32 0xFFFFFFFFFFFFFFFFFFFFFFFFFFFFFFFFFFFFFFFFFFFFFFFFFFFFFFFFFFFFFFFF DUP3 SUB PUSH2 0x26F2 JUMPI PUSH2 0x26F1 PUSH2 0x2686 JUMP JUMPDEST JUMPDEST PUSH1 0x1 DUP3 ADD SWAP1 POP SWAP2 SWAP1 POP JUMP JUMPDEST PUSH1 0x0 PUSH4 0xFFFFFFFF DUP3 AND SWAP1 POP SWAP2 SWAP1 POP JUMP JUMPDEST PUSH1 0x0 PUSH2 0x2718 DUP3 PUSH2 0x26FD JUMP JUMPDEST SWAP2 POP PUSH4 0xFFFFFFFF DUP3 SUB PUSH2 0x272E JUMPI PUSH2 0x272D PUSH2 0x2686 JUMP JUMPDEST JUMPDEST PUSH1 0x1 DUP3 ADD SWAP1 POP SWAP2 SWAP1 POP JUMP JUMPDEST PUSH1 0x0 DUP3 DUP3 MSTORE PUSH1 0x20 DUP3 ADD SWAP1 POP SWAP3 SWAP2 POP POP JUMP JUMPDEST PUSH32 0x23746F6B656E73203E20237061636B6574730000000000000000000000000000 PUSH1 0x0 DUP3 ADD MSTORE POP JUMP JUMPDEST PUSH1 0x0 PUSH2 0x2780 PUSH1 0x12 DUP4 PUSH2 0x2739 JUMP JUMPDEST SWAP2 POP PUSH2 0x278B DUP3 PUSH2 0x274A JUMP JUMPDEST PUSH1 0x20 DUP3 ADD SWAP1 POP SWAP2 SWAP1 POP JUMP JUMPDEST PUSH1 0x0 PUSH1 0x20 DUP3 ADD SWAP1 POP DUP2 DUP2 SUB PUSH1 0x0 DUP4 ADD MSTORE PUSH2 0x27AF DUP2 PUSH2 0x2773 JUMP JUMPDEST SWAP1 POP SWAP2 SWAP1 POP JUMP JUMPDEST PUSH32 0x4174206C65617374203120726563697069656E74000000000000000000000000 PUSH1 0x0 DUP3 ADD MSTORE POP JUMP JUMPDEST PUSH1 0x0 PUSH2 0x27EC PUSH1 0x14 DUP4 PUSH2 0x2739 JUMP JUMPDEST SWAP2 POP PUSH2 0x27F7 DUP3 PUSH2 0x27B6 JUMP JUMPDEST PUSH1 0x20 DUP3 ADD SWAP1 POP SWAP2 SWAP1 POP JUMP JUMPDEST PUSH1 0x0 PUSH1 0x20 DUP3 ADD SWAP1 POP DUP2 DUP2 SUB PUSH1 0x0 DUP4 ADD MSTORE PUSH2 0x281B DUP2 PUSH2 0x27DF JUMP JUMPDEST SWAP1 POP SWAP2 SWAP1 POP JUMP JUMPDEST PUSH32 0x4174206D6F7374203130303020726563697069656E7473000000000000000000 PUSH1 0x0 DUP3 ADD MSTORE POP JUMP JUMPDEST PUSH1 0x0 PUSH2 0x2858 PUSH1 0x17 DUP4 PUSH2 0x2739 JUMP JUMPDEST SWAP2 POP PUSH2 0x2863 DUP3 PUSH2 0x2822 JUMP JUMPDEST PUSH1 0x20 DUP3 ADD SWAP1 POP SWAP2 SWAP1 POP JUMP JUMPDEST PUSH1 0x0 PUSH1 0x20 DUP3 ADD SWAP1 POP DUP2 DUP2 SUB PUSH1 0x0 DUP4 ADD MSTORE PUSH2 0x2887 DUP2 PUSH2 0x284B JUMP JUMPDEST SWAP1 POP SWAP2 SWAP1 POP JUMP JUMPDEST PUSH32 0x556E7265636F676E697A61626C6520746F6B656E207479706500000000000000 PUSH1 0x0 DUP3 ADD MSTORE POP JUMP JUMPDEST PUSH1 0x0 PUSH2 0x28C4 PUSH1 0x19 DUP4 PUSH2 0x2739 JUMP JUMPDEST SWAP2 POP PUSH2 0x28CF DUP3 PUSH2 0x288E JUMP JUMPDEST PUSH1 0x20 DUP3 ADD SWAP1 POP SWAP2 SWAP1 POP JUMP JUMPDEST PUSH1 0x0 PUSH1 0x20 DUP3 ADD SWAP1 POP DUP2 DUP2 SUB PUSH1 0x0 DUP4 ADD MSTORE PUSH2 0x28F3 DUP2 PUSH2 0x28B7 JUMP JUMPDEST SWAP1 POP SWAP2 SWAP1 POP JUMP JUMPDEST PUSH32 0x57726F6E67204554480000000000000000000000000000000000000000000000 PUSH1 0x0 DUP3 ADD MSTORE POP JUMP JUMPDEST PUSH1 0x0 PUSH2 0x2930 PUSH1 0x9 DUP4 PUSH2 0x2739 JUMP JUMPDEST SWAP2 POP PUSH2 0x293B DUP3 PUSH2 0x28FA JUMP JUMPDEST PUSH1 0x20 DUP3 ADD SWAP1 POP SWAP2 SWAP1 POP JUMP JUMPDEST PUSH1 0x0 PUSH1 0x20 DUP3 ADD SWAP1 POP DUP2 DUP2 SUB PUSH1 0x0 DUP4 ADD MSTORE PUSH2 0x295F DUP2 PUSH2 0x2923 JUMP JUMPDEST SWAP1 POP SWAP2 SWAP1 POP JUMP JUMPDEST PUSH1 0x0 DUP2 MLOAD SWAP1 POP PUSH2 0x2975 DUP2 PUSH2 0x1F81 JUMP JUMPDEST SWAP3 SWAP2 POP POP JUMP JUMPDEST PUSH1 0x0 PUSH1 0x20 DUP3 DUP5 SUB SLT ISZERO PUSH2 0x2991 JUMPI PUSH2 0x2990 PUSH2 0x1EE2 JUMP JUMPDEST JUMPDEST PUSH1 0x0 PUSH2 0x299F DUP5 DUP3 DUP6 ADD PUSH2 0x2966 JUMP JUMPDEST SWAP2 POP POP SWAP3 SWAP2 POP POP JUMP JUMPDEST PUSH1 0x0 PUSH2 0x29B3 DUP3 PUSH2 0x1F77 JUMP JUMPDEST SWAP2 POP PUSH2 0x29BE DUP4 PUSH2 0x1F77 JUMP JUMPDEST SWAP3 POP DUP3 DUP3 SUB SWAP1 POP DUP2 DUP2 GT ISZERO PUSH2 0x29D6 JUMPI PUSH2 0x29D5 PUSH2 0x2686 JUMP JUMPDEST JUMPDEST SWAP3 SWAP2 POP POP JUMP JUMPDEST PUSH32 0x237265636569766564203E20237061636B657473000000000000000000000000 PUSH1 0x0 DUP3 ADD MSTORE POP JUMP JUMPDEST PUSH1 0x0 PUSH2 0x2A12 PUSH1 0x14 DUP4 PUSH2 0x2739 JUMP JUMPDEST SWAP2 POP PUSH2 0x2A1D DUP3 PUSH2 0x29DC JUMP JUMPDEST PUSH1 0x20 DUP3 ADD SWAP1 POP SWAP2 SWAP1 POP JUMP JUMPDEST PUSH1 0x0 PUSH1 0x20 DUP3 ADD SWAP1 POP DUP2 DUP2 SUB PUSH1 0x0 DUP4 ADD MSTORE PUSH2 0x2A41 DUP2 PUSH2 0x2A05 JUMP JUMPDEST SWAP1 POP SWAP2 SWAP1 POP JUMP JUMPDEST PUSH1 0x0 DUP2 PUSH1 0x60 SHL SWAP1 POP SWAP2 SWAP1 POP JUMP JUMPDEST PUSH1 0x0 PUSH2 0x2A60 DUP3 PUSH2 0x2A48 JUMP JUMPDEST SWAP1 POP SWAP2 SWAP1 POP JUMP JUMPDEST PUSH1 0x0 PUSH2 0x2A72 DUP3 PUSH2 0x2A55 JUMP JUMPDEST SWAP1 POP SWAP2 SWAP1 POP JUMP JUMPDEST PUSH2 0x2A8A PUSH2 0x2A85 DUP3 PUSH2 0x1F0C JUMP JUMPDEST PUSH2 0x2A67 JUMP JUMPDEST DUP3 MSTORE POP POP JUMP JUMPDEST PUSH1 0x0 DUP2 SWAP1 POP SWAP2 SWAP1 POP JUMP JUMPDEST PUSH2 0x2AAB PUSH2 0x2AA6 DUP3 PUSH2 0x1F77 JUMP JUMPDEST PUSH2 0x2A90 JUMP JUMPDEST DUP3 MSTORE POP POP JUMP JUMPDEST PUSH1 0x0 DUP2 PUSH1 0xE0 SHL SWAP1 POP SWAP2 SWAP1 POP JUMP JUMPDEST PUSH1 0x0 PUSH2 0x2AC9 DUP3 PUSH2 0x2AB1 JUMP JUMPDEST SWAP1 POP SWAP2 SWAP1 POP JUMP JUMPDEST PUSH2 0x2AE1 PUSH2 0x2ADC DUP3 PUSH2 0x26FD JUMP JUMPDEST PUSH2 0x2ABE JUMP JUMPDEST DUP3 MSTORE POP POP JUMP JUMPDEST PUSH1 0x0 DUP2 SWAP1 POP SWAP2 SWAP1 POP JUMP JUMPDEST PUSH1 0x0 DUP2 SWAP1 POP SWAP2 SWAP1 POP JUMP JUMPDEST PUSH2 0x2B0C PUSH2 0x2B07 DUP3 PUSH2 0x2AE7 JUMP JUMPDEST PUSH2 0x2AF1 JUMP JUMPDEST DUP3 MSTORE POP POP JUMP JUMPDEST PUSH1 0x0 PUSH2 0x2B1E DUP3 DUP8 PUSH2 0x2A79 JUMP JUMPDEST PUSH1 0x14 DUP3 ADD SWAP2 POP PUSH2 0x2B2E DUP3 DUP7 PUSH2 0x2A9A JUMP JUMPDEST PUSH1 0x20 DUP3 ADD SWAP2 POP PUSH2 0x2B3E DUP3 DUP6 PUSH2 0x2AD0 JUMP JUMPDEST PUSH1 0x4 DUP3 ADD SWAP2 POP PUSH2 0x2B4E DUP3 DUP5 PUSH2 0x2AFB JUMP JUMPDEST PUSH1 0x20 DUP3 ADD SWAP2 POP DUP2 SWAP1 POP SWAP6 SWAP5 POP POP POP POP POP JUMP JUMPDEST PUSH1 0x0 DUP2 MLOAD SWAP1 POP SWAP2 SWAP1 POP JUMP JUMPDEST PUSH1 0x0 JUMPDEST DUP4 DUP2 LT ISZERO PUSH2 0x2B89 JUMPI DUP1 DUP3 ADD MLOAD DUP2 DUP5 ADD MSTORE PUSH1 0x20 DUP2 ADD SWAP1 POP PUSH2 0x2B6E JUMP JUMPDEST PUSH1 0x0 DUP5 DUP5 ADD MSTORE POP POP POP POP JUMP JUMPDEST PUSH1 0x0 PUSH2 0x2BA0 DUP3 PUSH2 0x2B60 JUMP JUMPDEST PUSH2 0x2BAA DUP2 DUP6 PUSH2 0x2739 JUMP JUMPDEST SWAP4 POP PUSH2 0x2BBA DUP2 DUP6 PUSH1 0x20 DUP7 ADD PUSH2 0x2B6B JUMP JUMPDEST PUSH2 0x2BC3 DUP2 PUSH2 0x20E0 JUMP JUMPDEST DUP5 ADD SWAP2 POP POP SWAP3 SWAP2 POP POP JUMP JUMPDEST PUSH1 0x0 PUSH2 0x140 DUP3 ADD SWAP1 POP PUSH2 0x2BE4 PUSH1 0x0 DUP4 ADD DUP14 PUSH2 0x230A JUMP JUMPDEST PUSH2 0x2BF1 PUSH1 0x20 DUP4 ADD DUP13 PUSH2 0x230A JUMP JUMPDEST DUP2 DUP2 SUB PUSH1 0x40 DUP4 ADD MSTORE PUSH2 0x2C03 DUP2 DUP12 PUSH2 0x2B95 JUMP JUMPDEST SWAP1 POP DUP2 DUP2 SUB PUSH1 0x60 DUP4 ADD MSTORE PUSH2 0x2C17 DUP2 DUP11 PUSH2 0x2B95 JUMP JUMPDEST SWAP1 POP PUSH2 0x2C26 PUSH1 0x80 DUP4 ADD DUP10 PUSH2 0x2058 JUMP JUMPDEST PUSH2 0x2C33 PUSH1 0xA0 DUP4 ADD DUP9 PUSH2 0x230A JUMP JUMPDEST PUSH2 0x2C40 PUSH1 0xC0 DUP4 ADD DUP8 PUSH2 0x2058 JUMP JUMPDEST PUSH2 0x2C4D PUSH1 0xE0 DUP4 ADD DUP7 PUSH2 0x230A JUMP JUMPDEST PUSH2 0x2C5B PUSH2 0x100 DUP4 ADD DUP6 PUSH2 0x2444 JUMP JUMPDEST PUSH2 0x2C69 PUSH2 0x120 DUP4 ADD DUP5 PUSH2 0x230A JUMP JUMPDEST SWAP12 SWAP11 POP POP POP POP POP POP POP POP POP POP POP JUMP JUMPDEST PUSH32 0x4578706972656400000000000000000000000000000000000000000000000000 PUSH1 0x0 DUP3 ADD MSTORE POP JUMP JUMPDEST PUSH1 0x0 PUSH2 0x2CAE PUSH1 0x7 DUP4 PUSH2 0x2739 JUMP JUMPDEST SWAP2 POP PUSH2 0x2CB9 DUP3 PUSH2 0x2C78 JUMP JUMPDEST PUSH1 0x20 DUP3 ADD SWAP1 POP SWAP2 SWAP1 POP JUMP JUMPDEST PUSH1 0x0 PUSH1 0x20 DUP3 ADD SWAP1 POP DUP2 DUP2 SUB PUSH1 0x0 DUP4 ADD MSTORE PUSH2 0x2CDD DUP2 PUSH2 0x2CA1 JUMP JUMPDEST SWAP1 POP SWAP2 SWAP1 POP JUMP JUMPDEST PUSH32 0x4F7574206F662073746F636B0000000000000000000000000000000000000000 PUSH1 0x0 DUP3 ADD MSTORE POP JUMP JUMPDEST PUSH1 0x0 PUSH2 0x2D1A PUSH1 0xC DUP4 PUSH2 0x2739 JUMP JUMPDEST SWAP2 POP PUSH2 0x2D25 DUP3 PUSH2 0x2CE4 JUMP JUMPDEST PUSH1 0x20 DUP3 ADD SWAP1 POP SWAP2 SWAP1 POP JUMP JUMPDEST PUSH1 0x0 PUSH1 0x20 DUP3 ADD SWAP1 POP DUP2 DUP2 SUB PUSH1 0x0 DUP4 ADD MSTORE PUSH2 0x2D49 DUP2 PUSH2 0x2D0D JUMP JUMPDEST SWAP1 POP SWAP2 SWAP1 POP JUMP JUMPDEST PUSH32 0x566572696669636174696F6E206661696C656400000000000000000000000000 PUSH1 0x0 DUP3 ADD MSTORE POP JUMP JUMPDEST PUSH1 0x0 PUSH2 0x2D86 PUSH1 0x13 DUP4 PUSH2 0x2739 JUMP JUMPDEST SWAP2 POP PUSH2 0x2D91 DUP3 PUSH2 0x2D50 JUMP JUMPDEST PUSH1 0x20 DUP3 ADD SWAP1 POP SWAP2 SWAP1 POP JUMP JUMPDEST PUSH1 0x0 PUSH1 0x20 DUP3 ADD SWAP1 POP DUP2 DUP2 SUB PUSH1 0x0 DUP4 ADD MSTORE PUSH2 0x2DB5 DUP2 PUSH2 0x2D79 JUMP JUMPDEST SWAP1 POP SWAP2 SWAP1 POP JUMP JUMPDEST PUSH32 0x4F7574206F66206D61696E696E672C20706C656173652072656F627461696E20 PUSH1 0x0 DUP3 ADD MSTORE PUSH32 0x746865207369676E617475726500000000000000000000000000000000000000 PUSH1 0x20 DUP3 ADD MSTORE POP JUMP JUMPDEST PUSH1 0x0 PUSH2 0x2E18 PUSH1 0x2D DUP4 PUSH2 0x2739 JUMP JUMPDEST SWAP2 POP PUSH2 0x2E23 DUP3 PUSH2 0x2DBC JUMP JUMPDEST PUSH1 0x40 DUP3 ADD SWAP1 POP SWAP2 SWAP1 POP JUMP JUMPDEST PUSH1 0x0 PUSH1 0x20 DUP3 ADD SWAP1 POP DUP2 DUP2 SUB PUSH1 0x0 DUP4 ADD MSTORE PUSH2 0x2E47 DUP2 PUSH2 0x2E0B JUMP JUMPDEST SWAP1 POP SWAP2 SWAP1 POP JUMP JUMPDEST PUSH32 0x416C726561647920636C61696D65640000000000000000000000000000000000 PUSH1 0x0 DUP3 ADD MSTORE POP JUMP JUMPDEST PUSH1 0x0 PUSH2 0x2E84 PUSH1 0xF DUP4 PUSH2 0x2739 JUMP JUMPDEST SWAP2 POP PUSH2 0x2E8F DUP3 PUSH2 0x2E4E JUMP JUMPDEST PUSH1 0x20 DUP3 ADD SWAP1 POP SWAP2 SWAP1 POP JUMP JUMPDEST PUSH1 0x0 PUSH1 0x20 DUP3 ADD SWAP1 POP DUP2 DUP2 SUB PUSH1 0x0 DUP4 ADD MSTORE PUSH2 0x2EB3 DUP2 PUSH2 0x2E77 JUMP JUMPDEST SWAP1 POP SWAP2 SWAP1 POP JUMP JUMPDEST PUSH1 0x0 PUSH2 0x2EC5 DUP3 PUSH2 0x1F77 JUMP JUMPDEST SWAP2 POP PUSH2 0x2ED0 DUP4 PUSH2 0x1F77 JUMP JUMPDEST SWAP3 POP DUP3 DUP3 ADD SWAP1 POP DUP1 DUP3 GT ISZERO PUSH2 0x2EE8 JUMPI PUSH2 0x2EE7 PUSH2 0x2686 JUMP JUMPDEST JUMPDEST SWAP3 SWAP2 POP POP JUMP JUMPDEST PUSH1 0x0 PUSH1 0x80 DUP3 ADD SWAP1 POP PUSH2 0x2F03 PUSH1 0x0 DUP4 ADD DUP8 PUSH2 0x230A JUMP JUMPDEST PUSH2 0x2F10 PUSH1 0x20 DUP4 ADD DUP7 PUSH2 0x2058 JUMP JUMPDEST PUSH2 0x2F1D PUSH1 0x40 DUP4 ADD DUP6 PUSH2 0x230A JUMP JUMPDEST PUSH2 0x2F2A PUSH1 0x60 DUP4 ADD DUP5 PUSH2 0x2058 JUMP JUMPDEST SWAP6 SWAP5 POP POP POP POP POP JUMP JUMPDEST PUSH32 0x496E76616C69642072616E676500000000000000000000000000000000000000 PUSH1 0x0 DUP3 ADD MSTORE POP JUMP JUMPDEST PUSH1 0x0 PUSH2 0x2F69 PUSH1 0xD DUP4 PUSH2 0x2739 JUMP JUMPDEST SWAP2 POP PUSH2 0x2F74 DUP3 PUSH2 0x2F33 JUMP JUMPDEST PUSH1 0x20 DUP3 ADD SWAP1 POP SWAP2 SWAP1 POP JUMP JUMPDEST PUSH1 0x0 PUSH1 0x20 DUP3 ADD SWAP1 POP DUP2 DUP2 SUB PUSH1 0x0 DUP4 ADD MSTORE PUSH2 0x2F98 DUP2 PUSH2 0x2F5C JUMP JUMPDEST SWAP1 POP SWAP2 SWAP1 POP JUMP JUMPDEST PUSH32 0x456E6420696E646578206F7574206F662072616E676500000000000000000000 PUSH1 0x0 DUP3 ADD MSTORE POP JUMP JUMPDEST PUSH1 0x0 PUSH2 0x2FD5 PUSH1 0x16 DUP4 PUSH2 0x2739 JUMP JUMPDEST SWAP2 POP PUSH2 0x2FE0 DUP3 PUSH2 0x2F9F JUMP JUMPDEST PUSH1 0x20 DUP3 ADD SWAP1 POP SWAP2 SWAP1 POP JUMP JUMPDEST PUSH1 0x0 PUSH1 0x20 DUP3 ADD SWAP1 POP DUP2 DUP2 SUB PUSH1 0x0 DUP4 ADD MSTORE PUSH2 0x3004 DUP2 PUSH2 0x2FC8 JUMP JUMPDEST SWAP1 POP SWAP2 SWAP1 POP JUMP JUMPDEST PUSH32 0x6E6F742045787069726564000000000000000000000000000000000000000000 PUSH1 0x0 DUP3 ADD MSTORE POP JUMP JUMPDEST PUSH1 0x0 PUSH2 0x3041 PUSH1 0xB DUP4 PUSH2 0x2739 JUMP JUMPDEST SWAP2 POP PUSH2 0x304C DUP3 PUSH2 0x300B JUMP JUMPDEST PUSH1 0x20 DUP3 ADD SWAP1 POP SWAP2 SWAP1 POP JUMP JUMPDEST PUSH1 0x0 PUSH1 0x20 DUP3 ADD SWAP1 POP DUP2 DUP2 SUB PUSH1 0x0 DUP4 ADD MSTORE PUSH2 0x3070 DUP2 PUSH2 0x3034 JUMP JUMPDEST SWAP1 POP SWAP2 SWAP1 POP JUMP JUMPDEST PUSH32 0x686173206E6F2076616C75650000000000000000000000000000000000000000 PUSH1 0x0 DUP3 ADD MSTORE POP JUMP JUMPDEST PUSH1 0x0 PUSH2 0x30AD PUSH1 0xC DUP4 PUSH2 0x2739 JUMP JUMPDEST SWAP2 POP PUSH2 0x30B8 DUP3 PUSH2 0x3077 JUMP JUMPDEST PUSH1 0x20 DUP3 ADD SWAP1 POP SWAP2 SWAP1 POP JUMP JUMPDEST PUSH1 0x0 PUSH1 0x20 DUP3 ADD SWAP1 POP DUP2 DUP2 SUB PUSH1 0x0 DUP4 ADD MSTORE PUSH2 0x30DC DUP2 PUSH2 0x30A0 JUMP JUMPDEST SWAP1 POP SWAP2 SWAP1 POP JUMP JUMPDEST PUSH32 0x4F776E61626C653A206E6577206F776E657220697320746865207A65726F2061 PUSH1 0x0 DUP3 ADD MSTORE PUSH32 0x6464726573730000000000000000000000000000000000000000000000000000 PUSH1 0x20 DUP3 ADD MSTORE POP JUMP JUMPDEST PUSH1 0x0 PUSH2 0x313F PUSH1 0x26 DUP4 PUSH2 0x2739 JUMP JUMPDEST SWAP2 POP PUSH2 0x314A DUP3 PUSH2 0x30E3 JUMP JUMPDEST PUSH1 0x40 DUP3 ADD SWAP1 POP SWAP2 SWAP1 POP JUMP JUMPDEST PUSH1 0x0 PUSH1 0x20 DUP3 ADD SWAP1 POP DUP2 DUP2 SUB PUSH1 0x0 DUP4 ADD MSTORE PUSH2 0x316E DUP2 PUSH2 0x3132 JUMP JUMPDEST SWAP1 POP SWAP2 SWAP1 POP JUMP JUMPDEST PUSH32 0x4F776E61626C653A2063616C6C6572206973206E6F7420746865206F776E6572 PUSH1 0x0 DUP3 ADD MSTORE POP JUMP JUMPDEST PUSH1 0x0 PUSH2 0x31AB PUSH1 0x20 DUP4 PUSH2 0x2739 JUMP JUMPDEST SWAP2 POP PUSH2 0x31B6 DUP3 PUSH2 0x3175 JUMP JUMPDEST PUSH1 0x20 DUP3 ADD SWAP1 POP SWAP2 SWAP1 POP JUMP JUMPDEST PUSH1 0x0 PUSH1 0x20 DUP3 ADD SWAP1 POP DUP2 DUP2 SUB PUSH1 0x0 DUP4 ADD MSTORE PUSH2 0x31DA DUP2 PUSH2 0x319E JUMP JUMPDEST SWAP1 POP SWAP2 SWAP1 POP JUMP JUMPDEST PUSH1 0x0 PUSH1 0x60 DUP3 ADD SWAP1 POP PUSH2 0x31F6 PUSH1 0x0 DUP4 ADD DUP7 PUSH2 0x2058 JUMP JUMPDEST PUSH2 0x3203 PUSH1 0x20 DUP4 ADD DUP6 PUSH2 0x2058 JUMP JUMPDEST PUSH2 0x3210 PUSH1 0x40 DUP4 ADD DUP5 PUSH2 0x230A JUMP JUMPDEST SWAP5 SWAP4 POP POP POP POP JUMP JUMPDEST PUSH32 0x56616C7565206F7574206F662072616E676520554E424F580000000000000000 PUSH1 0x0 DUP3 ADD MSTORE POP JUMP JUMPDEST PUSH1 0x0 PUSH2 0x324E PUSH1 0x18 DUP4 PUSH2 0x2739 JUMP JUMPDEST SWAP2 POP PUSH2 0x3259 DUP3 PUSH2 0x3218 JUMP JUMPDEST PUSH1 0x20 DUP3 ADD SWAP1 POP SWAP2 SWAP1 POP JUMP JUMPDEST PUSH1 0x0 PUSH1 0x20 DUP3 ADD SWAP1 POP DUP2 DUP2 SUB PUSH1 0x0 DUP4 ADD MSTORE PUSH2 0x327D DUP2 PUSH2 0x3241 JUMP JUMPDEST SWAP1 POP SWAP2 SWAP1 POP JUMP JUMPDEST PUSH1 0x0 DUP2 MLOAD SWAP1 POP SWAP2 SWAP1 POP JUMP JUMPDEST PUSH1 0x0 DUP2 SWAP1 POP SWAP3 SWAP2 POP POP JUMP JUMPDEST PUSH1 0x0 PUSH2 0x32A5 DUP3 PUSH2 0x3284 JUMP JUMPDEST PUSH2 0x32AF DUP2 DUP6 PUSH2 0x328F JUMP JUMPDEST SWAP4 POP PUSH2 0x32BF DUP2 DUP6 PUSH1 0x20 DUP7 ADD PUSH2 0x2B6B JUMP JUMPDEST DUP1 DUP5 ADD SWAP2 POP POP SWAP3 SWAP2 POP POP JUMP JUMPDEST PUSH1 0x0 PUSH2 0x32D7 DUP3 DUP8 PUSH2 0x329A JUMP JUMPDEST SWAP2 POP PUSH2 0x32E3 DUP3 DUP7 PUSH2 0x2A9A JUMP JUMPDEST PUSH1 0x20 DUP3 ADD SWAP2 POP PUSH2 0x32F3 DUP3 DUP6 PUSH2 0x2A9A JUMP JUMPDEST PUSH1 0x20 DUP3 ADD SWAP2 POP PUSH2 0x3303 DUP3 DUP5 PUSH2 0x2A79 JUMP JUMPDEST PUSH1 0x14 DUP3 ADD SWAP2 POP DUP2 SWAP1 POP SWAP6 SWAP5 POP POP POP POP POP JUMP JUMPDEST PUSH1 0x0 PUSH1 0x40 DUP3 ADD SWAP1 POP PUSH2 0x332A PUSH1 0x0 DUP4 ADD DUP6 PUSH2 0x2058 JUMP JUMPDEST PUSH2 0x3337 PUSH1 0x20 DUP4 ADD DUP5 PUSH2 0x230A JUMP JUMPDEST SWAP4 SWAP3 POP POP POP JUMP JUMPDEST PUSH1 0x0 DUP2 MLOAD SWAP1 POP PUSH2 0x334D DUP2 PUSH2 0x20AA JUMP JUMPDEST SWAP3 SWAP2 POP POP JUMP JUMPDEST PUSH1 0x0 PUSH1 0x20 DUP3 DUP5 SUB SLT ISZERO PUSH2 0x3369 JUMPI PUSH2 0x3368 PUSH2 0x1EE2 JUMP JUMPDEST JUMPDEST PUSH1 0x0 PUSH2 0x3377 DUP5 DUP3 DUP6 ADD PUSH2 0x333E JUMP JUMPDEST SWAP2 POP POP SWAP3 SWAP2 POP POP JUMP JUMPDEST PUSH32 0x5361666545524332303A204552433230206F7065726174696F6E20646964206E PUSH1 0x0 DUP3 ADD MSTORE PUSH32 0x6F74207375636365656400000000000000000000000000000000000000000000 PUSH1 0x20 DUP3 ADD MSTORE POP JUMP JUMPDEST PUSH1 0x0 PUSH2 0x33DC PUSH1 0x2A DUP4 PUSH2 0x2739 JUMP JUMPDEST SWAP2 POP PUSH2 0x33E7 DUP3 PUSH2 0x3380 JUMP JUMPDEST PUSH1 0x40 DUP3 ADD SWAP1 POP SWAP2 SWAP1 POP JUMP JUMPDEST PUSH1 0x0 PUSH1 0x20 DUP3 ADD SWAP1 POP DUP2 DUP2 SUB PUSH1 0x0 DUP4 ADD MSTORE PUSH2 0x340B DUP2 PUSH2 0x33CF JUMP JUMPDEST SWAP1 POP SWAP2 SWAP1 POP JUMP JUMPDEST PUSH32 0x56616C7565206F7574206F662072616E676520424F5800000000000000000000 PUSH1 0x0 DUP3 ADD MSTORE POP JUMP JUMPDEST PUSH1 0x0 PUSH2 0x3448 PUSH1 0x16 DUP4 PUSH2 0x2739 JUMP JUMPDEST SWAP2 POP PUSH2 0x3453 DUP3 PUSH2 0x3412 JUMP JUMPDEST PUSH1 0x20 DUP3 ADD SWAP1 POP SWAP2 SWAP1 POP JUMP JUMPDEST PUSH1 0x0 PUSH1 0x20 DUP3 ADD SWAP1 POP DUP2 DUP2 SUB PUSH1 0x0 DUP4 ADD MSTORE PUSH2 0x3477 DUP2 PUSH2 0x343B JUMP JUMPDEST SWAP1 POP SWAP2 SWAP1 POP JUMP JUMPDEST PUSH32 0x4E487B7100000000000000000000000000000000000000000000000000000000 PUSH1 0x0 MSTORE PUSH1 0x21 PUSH1 0x4 MSTORE PUSH1 0x24 PUSH1 0x0 REVERT JUMPDEST PUSH32 0x45434453413A20696E76616C6964207369676E61747572650000000000000000 PUSH1 0x0 DUP3 ADD MSTORE POP JUMP JUMPDEST PUSH1 0x0 PUSH2 0x34E3 PUSH1 0x18 DUP4 PUSH2 0x2739 JUMP JUMPDEST SWAP2 POP PUSH2 0x34EE DUP3 PUSH2 0x34AD JUMP JUMPDEST PUSH1 0x20 DUP3 ADD SWAP1 POP SWAP2 SWAP1 POP JUMP JUMPDEST PUSH1 0x0 PUSH1 0x20 DUP3 ADD SWAP1 POP DUP2 DUP2 SUB PUSH1 0x0 DUP4 ADD MSTORE PUSH2 0x3512 DUP2 PUSH2 0x34D6 JUMP JUMPDEST SWAP1 POP SWAP2 SWAP1 POP JUMP JUMPDEST PUSH32 0x45434453413A20696E76616C6964207369676E6174757265206C656E67746800 PUSH1 0x0 DUP3 ADD MSTORE POP JUMP JUMPDEST PUSH1 0x0 PUSH2 0x354F PUSH1 0x1F DUP4 PUSH2 0x2739 JUMP JUMPDEST SWAP2 POP PUSH2 0x355A DUP3 PUSH2 0x3519 JUMP JUMPDEST PUSH1 0x20 DUP3 ADD SWAP1 POP SWAP2 SWAP1 POP JUMP JUMPDEST PUSH1 0x0 PUSH1 0x20 DUP3 ADD SWAP1 POP DUP2 DUP2 SUB PUSH1 0x0 DUP4 ADD MSTORE PUSH2 0x357E DUP2 PUSH2 0x3542 JUMP JUMPDEST SWAP1 POP SWAP2 SWAP1 POP JUMP JUMPDEST PUSH32 0x45434453413A20696E76616C6964207369676E6174757265202773272076616C PUSH1 0x0 DUP3 ADD MSTORE PUSH32 0x7565000000000000000000000000000000000000000000000000000000000000 PUSH1 0x20 DUP3 ADD MSTORE POP JUMP JUMPDEST PUSH1 0x0 PUSH2 0x35E1 PUSH1 0x22 DUP4 PUSH2 0x2739 JUMP JUMPDEST SWAP2 POP PUSH2 0x35EC DUP3 PUSH2 0x3585 JUMP JUMPDEST PUSH1 0x40 DUP3 ADD SWAP1 POP SWAP2 SWAP1 POP JUMP JUMPDEST PUSH1 0x0 PUSH1 0x20 DUP3 ADD SWAP1 POP DUP2 DUP2 SUB PUSH1 0x0 DUP4 ADD MSTORE PUSH2 0x3610 DUP2 PUSH2 0x35D4 JUMP JUMPDEST SWAP1 POP SWAP2 SWAP1 POP JUMP JUMPDEST PUSH32 0x416464726573733A20696E73756666696369656E742062616C616E636520666F PUSH1 0x0 DUP3 ADD MSTORE PUSH32 0x722063616C6C0000000000000000000000000000000000000000000000000000 PUSH1 0x20 DUP3 ADD MSTORE POP JUMP JUMPDEST PUSH1 0x0 PUSH2 0x3673 PUSH1 0x26 DUP4 PUSH2 0x2739 JUMP JUMPDEST SWAP2 POP PUSH2 0x367E DUP3 PUSH2 0x3617 JUMP JUMPDEST PUSH1 0x40 DUP3 ADD SWAP1 POP SWAP2 SWAP1 POP JUMP JUMPDEST PUSH1 0x0 PUSH1 0x20 DUP3 ADD SWAP1 POP DUP2 DUP2 SUB PUSH1 0x0 DUP4 ADD MSTORE PUSH2 0x36A2 DUP2 PUSH2 0x3666 JUMP JUMPDEST SWAP1 POP SWAP2 SWAP1 POP JUMP JUMPDEST PUSH1 0x0 PUSH2 0x36B5 DUP3 DUP5 PUSH2 0x329A JUMP JUMPDEST SWAP2 POP DUP2 SWAP1 POP SWAP3 SWAP2 POP POP JUMP JUMPDEST PUSH2 0x36C9 DUP2 PUSH2 0x2AE7 JUMP JUMPDEST DUP3 MSTORE POP POP JUMP JUMPDEST PUSH1 0x0 PUSH1 0xFF DUP3 AND SWAP1 POP SWAP2 SWAP1 POP JUMP JUMPDEST PUSH2 0x36E5 DUP2 PUSH2 0x36CF JUMP JUMPDEST DUP3 MSTORE POP POP JUMP JUMPDEST PUSH1 0x0 PUSH1 0x80 DUP3 ADD SWAP1 POP PUSH2 0x3700 PUSH1 0x0 DUP4 ADD DUP8 PUSH2 0x36C0 JUMP JUMPDEST PUSH2 0x370D PUSH1 0x20 DUP4 ADD DUP7 PUSH2 0x36DC JUMP JUMPDEST PUSH2 0x371A PUSH1 0x40 DUP4 ADD DUP6 PUSH2 0x36C0 JUMP JUMPDEST PUSH2 0x3727 PUSH1 0x60 DUP4 ADD DUP5 PUSH2 0x36C0 JUMP JUMPDEST SWAP6 SWAP5 POP POP POP POP POP JUMP JUMPDEST PUSH32 0x416464726573733A2063616C6C20746F206E6F6E2D636F6E7472616374000000 PUSH1 0x0 DUP3 ADD MSTORE POP JUMP JUMPDEST PUSH1 0x0 PUSH2 0x3766 PUSH1 0x1D DUP4 PUSH2 0x2739 JUMP JUMPDEST SWAP2 POP PUSH2 0x3771 DUP3 PUSH2 0x3730 JUMP JUMPDEST PUSH1 0x20 DUP3 ADD SWAP1 POP SWAP2 SWAP1 POP JUMP JUMPDEST PUSH1 0x0 PUSH1 0x20 DUP3 ADD SWAP1 POP DUP2 DUP2 SUB PUSH1 0x0 DUP4 ADD MSTORE PUSH2 0x3795 DUP2 PUSH2 0x3759 JUMP JUMPDEST SWAP1 POP SWAP2 SWAP1 POP JUMP JUMPDEST PUSH1 0x0 PUSH1 0x20 DUP3 ADD SWAP1 POP DUP2 DUP2 SUB PUSH1 0x0 DUP4 ADD MSTORE PUSH2 0x37B6 DUP2 DUP5 PUSH2 0x2B95 JUMP JUMPDEST SWAP1 POP SWAP3 SWAP2 POP POP JUMP INVALID NOT CHAINID PUSH10 0x6E546F6B656E20526564 POP PUSH2 0x636B PUSH6 0x74205369676E PUSH6 0x64204D657373 PUSH2 0x6765 GASPRICE EXP CALLER ORIGIN LOG2 PUSH5 0x6970667358 0x22 SLT KECCAK256 OR 0xD7 0xC9 DUP8 0xF8 0xE5 PUSH14 0xF1B4785B90C8F4E3251D92932B66 SLOAD PUSH25 0x991B9B04BEBD4196F764736F6C634300081200330000000000 "
		},
		"gasEstimates": {
			"creation": {
				"codeDepositCost": "2872400",
				"executionCost": "infinite",
				"totalCost": "infinite"
			},
			"external": {
				"checkAvailability(uint256)": "infinite",
				"claim(uint256,uint256,bytes)": "infinite",
				"createRedPacket(uint256,bool,uint256,string,string,uint256,address,uint256)": "infinite",
				"getExpiredPackets(uint256,uint256)": "infinite",
				"getRedPacketNum()": "2534",
				"owner()": "2566",
				"ownerRefund(uint256)": "infinite",
				"ownerRefundRange(uint256,uint256)": "infinite",
				"redpacketById(uint256)": "infinite",
				"renounceOwnership()": "30398",
				"setPublicKey(address)": "26987",
				"transferOwnership(address)": "30854"
			},
			"internal": {
				"_box(uint16,uint16,uint256)": "infinite",
				"_random(bytes32,uint32)": "infinite",
				"_rewriteBox(uint256,uint16,uint16,uint256)": "73",
				"_transferToken(address,address,uint256)": "infinite",
				"_unbox(uint256,uint16,uint16)": "145",
				"_validRange(uint16,uint256)": "54",
				"_verify(bytes memory,address,uint256,uint256,address)": "infinite",
				"_wrap1(uint256,uint256)": "infinite",
				"_wrap2(address,uint256,uint256,uint256)": "infinite"
			}
		},
		"methodIdentifiers": {
			"checkAvailability(uint256)": "753999ef",
			"claim(uint256,uint256,bytes)": "5eddd157",
			"createRedPacket(uint256,bool,uint256,string,string,uint256,address,uint256)": "510be06b",
			"getExpiredPackets(uint256,uint256)": "ab08d166",
			"getRedPacketNum()": "535e1c09",
			"owner()": "8da5cb5b",
			"ownerRefund(uint256)": "e1bf905a",
			"ownerRefundRange(uint256,uint256)": "15cbadff",
			"redpacketById(uint256)": "3435926f",
			"renounceOwnership()": "715018a6",
			"setPublicKey(address)": "097eb759",
			"transferOwnership(address)": "f2fde38b"
		}
	},
	"abi": [
		{
			"inputs": [
				{
					"internalType": "address",
					"name": "newPublicKey",
					"type": "address"
				}
			],
			"stateMutability": "nonpayable",
			"type": "constructor"
		},
		{
			"anonymous": false,
			"inputs": [
				{
					"indexed": false,
					"internalType": "uint256",
					"name": "id",
					"type": "uint256"
				},
				{
					"indexed": false,
					"internalType": "address",
					"name": "claimer",
					"type": "address"
				},
				{
					"indexed": false,
					"internalType": "uint256",
					"name": "claimedValue",
					"type": "uint256"
				},
				{
					"indexed": false,
					"internalType": "address",
					"name": "tokenAddress",
					"type": "address"
				}
			],
			"name": "ClaimSuccess",
			"type": "event"
		},
		{
			"anonymous": false,
			"inputs": [
				{
					"indexed": false,
					"internalType": "uint256",
					"name": "total",
					"type": "uint256"
				},
				{
					"indexed": false,
					"internalType": "uint256",
					"name": "id",
					"type": "uint256"
				},
				{
					"indexed": false,
					"internalType": "string",
					"name": "name",
					"type": "string"
				},
				{
					"indexed": false,
					"internalType": "string",
					"name": "message",
					"type": "string"
				},
				{
					"indexed": false,
					"internalType": "address",
					"name": "creator",
					"type": "address"
				},
				{
					"indexed": false,
					"internalType": "uint256",
					"name": "creationTime",
					"type": "uint256"
				},
				{
					"indexed": false,
					"internalType": "address",
					"name": "tokenAddress",
					"type": "address"
				},
				{
					"indexed": false,
					"internalType": "uint256",
					"name": "number",
					"type": "uint256"
				},
				{
					"indexed": false,
					"internalType": "bool",
					"name": "ifrandom",
					"type": "bool"
				},
				{
					"indexed": false,
					"internalType": "uint256",
					"name": "duration",
					"type": "uint256"
				}
			],
			"name": "CreationSuccess",
			"type": "event"
		},
		{
			"anonymous": false,
			"inputs": [
				{
					"indexed": true,
					"internalType": "address",
					"name": "previousOwner",
					"type": "address"
				},
				{
					"indexed": true,
					"internalType": "address",
					"name": "newOwner",
					"type": "address"
				}
			],
			"name": "OwnershipTransferred",
			"type": "event"
		},
		{
			"anonymous": false,
			"inputs": [
				{
					"indexed": false,
					"internalType": "uint256",
					"name": "id",
					"type": "uint256"
				},
				{
					"indexed": false,
					"internalType": "address",
					"name": "tokenAddress",
					"type": "address"
				},
				{
					"indexed": false,
					"internalType": "uint256",
					"name": "remainingBalance",
					"type": "uint256"
				}
			],
			"name": "RefundSuccess",
			"type": "event"
		},
		{
			"inputs": [
				{
					"internalType": "uint256",
					"name": "id",
					"type": "uint256"
				}
			],
			"name": "checkAvailability",
			"outputs": [
				{
					"internalType": "address",
					"name": "tokenAddress",
					"type": "address"
				},
				{
					"internalType": "uint256",
					"name": "remainingTokens",
					"type": "uint256"
				},
				{
					"internalType": "uint256",
					"name": "totalNumber",
					"type": "uint256"
				},
				{
					"internalType": "uint256",
					"name": "claimedNumber",
					"type": "uint256"
				},
				{
					"internalType": "uint256",
					"name": "ifrandom",
					"type": "uint256"
				},
				{
					"internalType": "bool",
					"name": "expired",
					"type": "bool"
				},
				{
					"internalType": "uint256",
					"name": "claimedAmount",
					"type": "uint256"
				}
			],
			"stateMutability": "view",
			"type": "function"
		},
		{
			"inputs": [
				{
					"internalType": "uint256",
					"name": "id",
					"type": "uint256"
				},
				{
					"internalType": "uint256",
					"name": "receivedAmount",
					"type": "uint256"
				},
				{
					"internalType": "bytes",
					"name": "signedMsg",
					"type": "bytes"
				}
			],
			"name": "claim",
			"outputs": [
				{
					"internalType": "uint256",
					"name": "claimed",
					"type": "uint256"
				}
			],
			"stateMutability": "nonpayable",
			"type": "function"
		},
		{
			"inputs": [
				{
					"internalType": "uint256",
					"name": "number",
					"type": "uint256"
				},
				{
					"internalType": "bool",
					"name": "ifrandom",
					"type": "bool"
				},
				{
					"internalType": "uint256",
					"name": "duration",
					"type": "uint256"
				},
				{
					"internalType": "string",
					"name": "_message",
					"type": "string"
				},
				{
					"internalType": "string",
					"name": "_name",
					"type": "string"
				},
				{
					"internalType": "uint256",
					"name": "tokenType",
					"type": "uint256"
				},
				{
					"internalType": "address",
					"name": "tokenAddr",
					"type": "address"
				},
				{
					"internalType": "uint256",
					"name": "totalTokens",
					"type": "uint256"
				}
			],
			"name": "createRedPacket",
			"outputs": [
				{
					"internalType": "uint256",
					"name": "id",
					"type": "uint256"
				}
			],
			"stateMutability": "payable",
			"type": "function"
		},
		{
			"inputs": [
				{
					"internalType": "uint256",
					"name": "startIndex",
					"type": "uint256"
				},
				{
					"internalType": "uint256",
					"name": "endIndex",
					"type": "uint256"
				}
			],
			"name": "getExpiredPackets",
			"outputs": [
				{
					"components": [
						{
							"internalType": "uint256",
							"name": "id",
							"type": "uint256"
						},
						{
							"internalType": "address",
							"name": "tokenAddr",
							"type": "address"
						},
						{
							"internalType": "uint256",
							"name": "amount",
							"type": "uint256"
						},
						{
							"internalType": "uint256",
							"name": "tokenType",
							"type": "uint256"
						}
					],
					"internalType": "struct FinRedPacket.ExpiredPacket[]",
					"name": "",
					"type": "tuple[]"
				},
				{
					"internalType": "uint256",
					"name": "validIndex",
					"type": "uint256"
				}
			],
			"stateMutability": "view",
			"type": "function"
		},
		{
			"inputs": [],
			"name": "getRedPacketNum",
			"outputs": [
				{
					"internalType": "uint256",
					"name": "",
					"type": "uint256"
				}
			],
			"stateMutability": "view",
			"type": "function"
		},
		{
			"inputs": [],
			"name": "owner",
			"outputs": [
				{
					"internalType": "address",
					"name": "",
					"type": "address"
				}
			],
			"stateMutability": "view",
			"type": "function"
		},
		{
			"inputs": [
				{
					"internalType": "uint256",
					"name": "id",
					"type": "uint256"
				}
			],
			"name": "ownerRefund",
			"outputs": [],
			"stateMutability": "nonpayable",
			"type": "function"
		},
		{
			"inputs": [
				{
					"internalType": "uint256",
					"name": "startIndex",
					"type": "uint256"
				},
				{
					"internalType": "uint256",
					"name": "endIndex",
					"type": "uint256"
				}
			],
			"name": "ownerRefundRange",
			"outputs": [],
			"stateMutability": "nonpayable",
			"type": "function"
		},
		{
			"inputs": [
				{
					"internalType": "uint256",
					"name": "",
					"type": "uint256"
				}
			],
			"name": "redpacketById",
			"outputs": [
				{
					"components": [
						{
							"internalType": "uint256",
							"name": "packed1",
							"type": "uint256"
						},
						{
							"internalType": "uint256",
							"name": "packed2",
							"type": "uint256"
						}
					],
					"internalType": "struct FinRedPacket.Packed",
					"name": "packed",
					"type": "tuple"
				},
				{
					"internalType": "address",
					"name": "publicKey",
					"type": "address"
				},
				{
					"internalType": "address",
					"name": "creator",
					"type": "address"
				}
			],
			"stateMutability": "view",
			"type": "function"
		},
		{
			"inputs": [],
			"name": "renounceOwnership",
			"outputs": [],
			"stateMutability": "nonpayable",
			"type": "function"
		},
		{
			"inputs": [
				{
					"internalType": "address",
					"name": "newPublicKey",
					"type": "address"
				}
			],
			"name": "setPublicKey",
			"outputs": [],
			"stateMutability": "nonpayable",
			"type": "function"
		},
		{
			"inputs": [
				{
					"internalType": "address",
					"name": "newOwner",
					"type": "address"
				}
			],
			"name": "transferOwnership",
			"outputs": [],
			"stateMutability": "nonpayable",
			"type": "function"
		}
	]
}